:100000000C945E000C94BD040C9496040C94860031
:100010000C9486000C9486000C9486000C94860048
:100020000C9486000C9486000C9486000C94860038
:100030000C9486000C9486000C9486000C94860028
:100040000C944C040C9486000C941A040C94F40345
:100050000C9486000C9486000C9486000C94860008
:100060000C9486000C948600000000080002010039
:100070000003040700000000000000000000000072
:10008000250028002B0000000000240027002A0083
:10009000040404040404040402020202020203032E
:1000A0000303030301020408102040800102040836
:1000B0001020010204081020E404460611241FBE8B
:1000C000CFEFD8E0DEBFCDBF11E0A0E0B1E0EEE1C0
:1000D000FFE002C005900D92AA36B107D9F722E0E1
:1000E000AAE6B1E001C01D92A734B207E1F710E023
:1000F000CDE5D0E004C02197FE010E944A06CC3530
:10010000D107C9F70E9464050C9482070C94000083
:10011000DC01ED91FC910190F081E02D0994CF92EA
:10012000DF92EF92FF920F931F93CF93DF936C01B7
:100130007A018B01C0E0D0E0CE15DF0589F0D8014F
:100140006D918D01D601ED91FC910190F081E02D32
:10015000C6010995892B11F47E0102C02196ECCFCE
:10016000C701DF91CF911F910F91FF90EF90DF902A
:10017000CF900895FC01918D828D981761F0828D4A
:10018000DF01A80FB11D5D968C91928D9F5F9F73CB
:10019000928F90E008958FEF9FEF0895FC01918D6D
:1001A000828D981731F0828DE80FF11D858D90E0DA
:1001B00008958FEF9FEF0895FC01918D228D892F77
:1001C00090E0805C9F4F821B91098F73992708955F
:1001D0008CE791E00E94DC0021E0892B09F420E00B
:1001E000822F0895FC01848DDF01A80FB11DA35A51
:1001F000BF4F2C91848D90E001968F739927848F47
:10020000A689B7892C93A089B1898C9180648C933D
:10021000938D848D981306C00288F389E02D808128
:100220008F7D80830895EF92FF920F931F93CF935A
:10023000DF93EC0181E0888F9B8D8C8D981305C036
:10024000E889F989808185FD24C0F62E0B8D10E0A8
:100250000F5F1F4F0F731127E02E8C8DE8120CC01B
:100260000FB607FCFACFE889F989808185FFF5CFC1
:10027000CE010E94F200F1CF8B8DFE01E80FF11D3F
:10028000E35AFF4FF0820B8FEA89FB8980818062FD
:1002900007C0EE89FF896083E889F98980818064DD
:1002A000808381E090E0DF91CF911F910F91FF90CB
:1002B000EF900895CF93DF93EC01888D8823C9F0E8
:1002C000EA89FB89808185FD05C0A889B9898C915F
:1002D00086FD0FC00FB607FCF5CF808185FFF2CFFA
:1002E000A889B9898C9185FFEDCFCE010E94F200DB
:1002F000E7CFDF91CF91089580E090E0892B29F03E
:100300000E94E80081110C940000089590E0FC0127
:10031000E859FF4F3491FC01EC55FF4F2491FC014B
:10032000E057FF4FE491EE2309F43BC0332339F14A
:10033000333091F038F43130A9F0323001F584B522
:100340008F7D12C0373091F03830A1F03430B9F4DD
:10035000809180008F7D03C0809180008F77809393
:1003600080000DC084B58F7784BD09C08091B00036
:100370008F7703C08091B0008F7D8093B000F0E054
:10038000EE0FFF1FE458FF4FA591B4918FB7F8947B
:10039000EC91611103C020952E2301C02E2B2C93CC
:1003A0008FBF08950895CB0108957F928F929F92F9
:1003B000AF92BF92CF92DF92EF92FF920F931F9373
:1003C000CF93DF93EC0149015A018B01C12CD12C51
:1003D0007601C814D904EA04FB0484F5F80171908D
:1003E0008F018F8580FF0BC0E881F9810084F18542
:1003F000E02D20E144E060E070E0CE010995EB855E
:10040000FC858D859E85E817F90738F470828B8509
:100410009C8501969C878B870BC0E881F981672DAD
:1004200070E0028CF38DE02DCE010995019649F024
:100430002FEFC21AD20AE20AF20ACBCFB401C501E9
:1004400002C0B601C701DF91CF911F910F91FF90BC
:10045000EF90DF90CF90BF90AF909F908F907F9064
:100460000895CF93DF93EC01E881F9810288F38945
:10047000E02D09958F3F2FEF920731F02D813E81BE
:100480002F5F3F4F3E832D83DF91CF9108958FEFF4
:100490009FEF089560E070E0CB01089580E090E068
:1004A00008950F931F93CF93DF938C01EB016F3F60
:1004B0008FEF780719F480E090E00FC06A3031F4D4
:1004C0006DE0F801808991890E9488006C2FF80105
:1004D000808991890E948800CE01DF91CF911F9180
:1004E0000F9108958F929F92BF92CF92DF92EF92D9
:1004F000FF920F931F93CF93DF9300D000D0CDB71F
:10050000DEB78C014B01C12CD12C7601C216D3066B
:10051000E406F50644F5F401B1904F01FAE0BF128C
:100520000EC06DE0F8018089918929833A834B835D
:100530005C830E9488005C814B813A8129816B2D0C
:10054000F8018089918929833A834B835C830E94D7
:100550008800FFEFCF1ADF0AEF0AFF0A5C814B81A8
:100560003A812981D3CFCA01B9010F900F900F9022
:100570000F90DF91CF911F910F91FF90EF90DF903F
:10058000CF90BF909F908F900895CB010895CF9307
:10059000DF93EC0188899989DC01ED91FC9104805D
:1005A000F581E02D0995892B59F088899989DC011D
:1005B000ED91FC910680F781E02DDF91CF910994B8
:1005C0008FEF9FEFDF91CF910895CF93DF93EC01F1
:1005D00088899989DC01ED91FC910480F581E02DF9
:1005E0000995892B59F088899989DC01ED91FC9155
:1005F0000084F185E02DDF91CF9109948FEF9FEF7B
:10060000DF91CF910895AF92BF92CF92DF92EF9298
:10061000FF920F931F93CF93DF9300D000D0CDB7FD
:10062000DEB78C015B01C12CD12C7601F8018089E9
:100630009189DC01ED91FC910680F781E02D298301
:100640003A834B835C83099529813A814B815C8194
:100650008F3F71F0C216D306E406F5064CF4D501BF
:100660008D935D01BFEFCB1ADB0AEB0AFB0ADECFED
:10067000C701B6010F900F900F900F90DF91CF91AF
:100680001F910F91FF90EF90DF90CF90BF90AF90B0
:100690000895DC0150968D919C915197DC01ED916C
:1006A000FC910480F581E02D099480E090E00895AC
:1006B00080E090E0089580E090E0089580E090E090
:1006C000089508950895089508952FB7F894809196
:1006D000700190917101A0917201B09173012FBFCF
:1006E000409174015091750160917601709177018C
:1006F000841B950BA60BB70B893E9340A105B10552
:10070000F0F02FB7F8948091700190917101A09151
:100710007201B09173012FBF8093740190937501A2
:10072000A0937601B093770190916A0181E08927C7
:1007300080936A0160916A018DE00C9486010895AE
:100740000E947D070C94E5060C94E5060895089533
:100750000C94E506DC01ED91FC9136972081318106
:10076000820F931F0C94A803FB0120813181FC01AF
:1007700031832083FB0142815381F9013697208127
:100780003181FC01E20FF31F51834083089524E57A
:1007900031E0FC01318320832EE531E0358B248B61
:1007A00064E671E00C94B403DC01ED91FC913697A2
:1007B00020813181820F931F0C94C703CF93DF9365
:1007C000EC010E94C703CE01DF91CF910C94E506A6
:1007D000DC01ED91FC91369720813181820F931FCE
:1007E0000C94DE030C94E5061F920F920FB60F9245
:1007F00011242F933F934F935F936F937F938F9326
:100800009F93AF93BF93EF93FF938CE791E00E9488
:10081000F200FF91EF91BF91AF919F918F917F91E6
:100820006F915F914F913F912F910F900FBE0F905D
:100830001F9018951F920F920FB60F9211242F93AD
:100840008F939F93EF93FF93E0918C01F0918D0133
:100850008081E0919201F091930182FD12C090811C
:10086000809195018F5F8F7320919601821751F0CF
:10087000E0919501F0E0E458FE4F958F809395014B
:1008800001C08081FF91EF919F918F912F910F90E7
:100890000FBE0F901F9018951F920F920FB60F92D8
:1008A00011242F933F938F939F93AF93BF93809186
:1008B000700190917101A0917201B091730130911A
:1008C0006F0123E0230F2D3720F40196A11DB11DE8
:1008D00005C026E8230F0296A11DB11D20936F01CC
:1008E0008093700190937101A0937201B093730192
:1008F00080916B0190916C01A0916D01B0916E019E
:100900000196A11DB11D80936B0190936C01A09382
:100910006D01B0936E01BF91AF919F918F913F9107
:100920002F910F900FBE0F901F9018951F920F924E
:100930000FB60F9211242F933F934F935F936F93B2
:100940007F938F939F93AF93BF93EF93FF93E09128
:100950000201F09103010995FF91EF91BF91AF91D1
:100960009F918F917F916F915F914F913F912F91C7
:100970000F900FBE0F901F9018951F920F920FB6F9
:100980000F9211242F933F934F935F936F937F9315
:100990008F939F93AF93BF93EF93FF93E0910001E9
:1009A000F09101010995FF91EF91BF91AF919F9156
:1009B0008F917F916F915F914F913F912F910F9008
:1009C0000FBE0F901F901895ACE7B1E013961C92E4
:1009D0001E92129748EE53E060E070E014964D933B
:1009E0005D936D937C93179782E291E011969C93AF
:1009F0008E9385EC90E01D969C938E931C9784ECCF
:100A000090E01F969C938E931E9780EC90E05196F9
:100A10009C938E93509781EC90E053969C938E9389
:100A2000529782EC90E055969C938E93549786EC67
:100A300090E057969C938E93569759961C9259978F
:100A40005A961C925A975B961C925B975C961C92E6
:100A50005C97E9E1F2E081E290E0908F878B118E64
:100A6000128E138E46E050E060E070E0448F558FA8
:100A7000668F778F10A211A212A213A280E284A324
:100A800016A215A211A68BE192E090A787A384E598
:100A900091E0918380838EE591E0958B848B168223
:100AA0001582108617821286118614861386168682
:100AB0001586108A178682E391E093838283B38B35
:100AC000A28B80E1818B0895789484B5826084BD87
:100AD00084B5816084BD85B5826085BD85B5816042
:100AE00085BD80916E00816080936E0010928100C0
:100AF000809181008260809381008091810081607B
:100B0000809381008091800081608093800080913B
:100B1000B10084608093B1008091B00081608093C7
:100B2000B00080917A00846080937A0080917A008E
:100B3000826080937A0080917A00816080937A004D
:100B400080917A00806880937A001092C100E091D1
:100B50008C01F0918D0182E08083E0918801F09119
:100B600089011082E0918A01F0918B0180E18083FC
:100B700010929401E0919001F091910186E08083C0
:100B8000E0918E01F0918F01808180618083E091FE
:100B90008E01F0918F01808188608083E0918E01C9
:100BA000F0918F01808180688083E0918E01F091C7
:100BB0008F0180818F7D80832FB7F89480917001A1
:100BC00090917101A0917201B09173012FBF809338
:100BD000780190937901A0937A01B0937B0180937F
:100BE000740190937501A0937601B0937701E1EBC6
:100BF000F0E02491EDE9F0E08491882399F090E011
:100C0000880F991FFC01EA57FF4FA591B491FC0191
:100C1000E458FF4F859194918FB7F894EC91E22BB3
:100C2000EC938FBFE6EAF0E02491E2E9F0E08491F2
:100C30008823C1F090E0880F991FFC01EA57FF4F0D
:100C4000C591D491FC01E458FF4FA591B4919FB791
:100C5000F8948881E22FE0958E2388838C91E82395
:100C6000EC939FBF61E082E00E94860185E693E0FD
:100C70009093010180930001809169008C7F8260D4
:100C800080936900E89A0E947C01FDCF89E192E09F
:100C90000C94C703EE0FFF1F0590F491E02D09940B
:100CA000CF93DF938230910510F482E090E0E091E1
:100CB0004502F091460220E030E0C0E0D0E03097FD
:100CC00011F14081518148175907C0F04817590761
:100CD00061F482819381209719F09B838A832BC0D2
:100CE000909346028093450226C02115310519F0E4
:100CF0004217530718F49A01BE01DF01EF01028089
:100D0000F381E02DDCCF2115310509F1281B390BCA
:100D10002430310590F412968D919C9113976115B2
:100D2000710521F0FB019383828304C090934602F6
:100D300080934502FD01329644C0FD01E20FF31F8E
:100D400081939193225031092D933C933AC0209185
:100D5000430230914402232B41F42091060130914B
:100D60000701309344022093430220910401309103
:100D700005012115310541F42DB73EB74091080119
:100D800050910901241B350BE0914302F09144027C
:100D9000E217F307A0F42E1B3F0B2817390778F052
:100DA000AC014E5F5F4F2417350748F04E0F5F1FB1
:100DB00050934402409343028193919302C0E0E038
:100DC000F0E0CF01DF91CF9108950F931F93CF9360
:100DD000DF93009709F48CC0FC01329713821282D2
:100DE00000914502109146020115110581F4208100
:100DF0003181820F931F20914302309144022817C2
:100E0000390779F5F0934402E093430271C0D801A9
:100E100040E050E0AE17BF0750F412962D913C9180
:100E20001397AD012115310509F1D901F3CF9D01CA
:100E3000DA013383228360817181860F971F8217C5
:100E4000930769F4EC0128813981260F371F2E5F43
:100E50003F4F318320838A819B8193838283452BFB
:100E600029F4F0934602E093450242C01396FC93A6
:100E7000EE931297ED01499159919E01240F351F70
:100E8000E217F30771F480819181840F951F029618
:100E900011969C938E938281938113969C938E934B
:100EA0001297E0E0F0E0D80112968D919C91139793
:100EB000009719F0F8018C01F6CF8D919C91980163
:100EC0002E5F3F4F820F931F2091430230914402C7
:100ED0002817390769F4309729F4109246021092C6
:100EE000450202C01382128210934402009343020F
:100EF000DF91CF911F910F91089581E090E0F894D8
:100F00000C94820710E0CDE5D0E004C0FE010E9401
:0E0F10004A062196CE35D107C9F7F894FFCFD7
:100F1E00D201D20100004702800014000000000040
:100F2E0000000000ECFFECFF0000000000000000DD
:100F3E00000013018F00DC00BA00CE005A01000041
:100F4E0000006303A40361035E035B0358035503B0
:100F5E0049030303E502C702C502720251021400DF
:100F6E0000000000C703DE03ECFFECFF0000D4031B
:0A0F7E00E803540110011A015E019E
:00000001FF
