:100000000C9463000C942D050C9406050C948B0045
:100010000C948B000C948B000C948B000C94540566
:100020000C948B000C948B000C948B000C948B0024
:100030000C948B000C948B000C948B000C948B0014
:100040000C94BC040C948B000C948A040C946404EF
:100050000C948B000C948B000C948B000C948B00F4
:100060000C948B000C948B000000000024002700EF
:100070002A0000000000250028002B0000000000DE
:1000800023002600290004040404040404040202DA
:100090000202020203030303030301020408102007
:1000A0004080010204081020010204081020000012
:1000B0000008000201000003040700000000000027
:1000C00000001307800811241FBECFEFD8E0DEBF69
:1000D000CDBF11E0A0E0B1E0E6EEF5E102C0059091
:1000E0000D92AA36B107D9F722E0AAE6B1E001C025
:1000F0001D92A735B207E1F710E0C2E6D0E004C0D8
:100100002197FE010E94AE09C136D107C9F70E94AE
:1001100093070C94E60A0C940000DC01ED91FC912D
:100120000190F081E02D0994CF92DF92EF92FF923F
:100130000F931F93CF93DF936C017A018B01C0E083
:10014000D0E0CE15DF0589F0D8016D918D01D60183
:10015000ED91FC910190F081E02DC6010995892B6C
:1001600011F47E0102C02196ECCFC701DF91CF913F
:100170001F910F91FF90EF90DF90CF900895FC01B9
:10018000918D828D981761F0828DDF01A80FB11DCE
:100190005D968C91928D9F5F9F73928F90E00895F2
:1001A0008FEF9FEF0895FC01918D828D981731F0AC
:1001B000828DE80FF11D858D90E008958FEF9FEF00
:1001C0000895FC01918D228D892F90E0805C9F4FD6
:1001D000821B91098F73992708958CE891E00E9402
:1001E000E10021E0892B09F420E0822F0895FC0131
:1001F000848DDF01A80FB11DA35ABF4F2C91848DB0
:1002000090E001968F739927848FA689B7892C93E4
:10021000A089B1898C9180648C93938D848D98137F
:1002200006C00288F389E02D80818F7D8083089548
:10023000EF92FF920F931F93CF93DF93EC0181E036
:10024000888F9B8D8C8D981305C0E889F9898081F2
:1002500085FD24C0F62E0B8D10E00F5F1F4F0F732E
:100260001127E02E8C8DE8120CC00FB607FCFACFD8
:10027000E889F989808185FFF5CFCE010E94F700DA
:10028000F1CF8B8DFE01E80FF11DE35AFF4FF08295
:100290000B8FEA89FB898081806207C0EE89FF8924
:1002A0006083E889F98980818064808381E090E0BF
:1002B000DF91CF911F910F91FF90EF900895CF9311
:1002C000DF93EC01888D8823C9F0EA89FB8980815E
:1002D00085FD05C0A889B9898C9186FD0FC00FB630
:1002E00007FCF5CF808185FFF2CFA889B9898C9171
:1002F00085FFEDCFCE010E94F700E7CFDF91CF91D0
:10030000089580E090E0892B29F00E94ED00811192
:100310000C9400000895833081F028F4813099F026
:100320008230A1F008958730A9F08830B9F0843088
:10033000D1F4809180008F7D03C0809180008F7701
:1003400080938000089584B58F7702C084B58F7D37
:1003500084BD08958091B0008F7703C08091B00074
:100360008F7D8093B0000895CF93DF93E0EBF0E0B2
:100370008491ECE9F0E0D491E8E8F0E0C491CC237A
:1003800091F081110E948B01EC2FF0E0EE0FFF1F26
:10039000E458FF4FA591B491EC91ED2381E090E0FA
:1003A00021F480E002C080E090E0DF91CF910895D9
:1003B0001F93CF93DF93282F30E0F901E255FF4FD1
:1003C0008491F901E656FF4FD491F901EA57FF4FA6
:1003D000C491CC23C9F0162F81110E948B01EC2F00
:1003E000F0E0EE0FFF1FEE58FF4FA591B4918FB7CD
:1003F000F894111105C09C91ED2FE095E92302C0FE
:10040000EC91ED2BEC938FBFDF91CF911F9108956D
:10041000CF93DF9390E0FC01E656FF4F2491FC015F
:10042000EA57FF4F8491882361F190E0880F991F6C
:10043000FC01E859FF4FC591D491FC01EE58FF4FE4
:10044000A591B491611109C09FB7F8948881209556
:1004500082238883EC912E230BC0623061F49FB716
:10046000F8943881822F809583238883EC912E2BFA
:100470002C939FBF06C08FB7F894E8812E2B28835A
:100480008FBFDF91CF9108958E3008F08E50877026
:10049000806480937C0080917A00806480937A00ED
:1004A00080917A0086FDFCCF8091780020917900C0
:1004B00090E0922B08952FB7F8946091700170919D
:1004C000710180917201909173012FBF08950E9474
:1004D0005B02609374017093750180937601909331
:1004E000770108950E945B0260937C0170937D0107
:1004F00080937E0190937F0108950895CB01089524
:100500007F928F929F92AF92BF92CF92DF92EF92A3
:10051000FF920F931F93CF93DF93EC0149015A0190
:100520008B01C12CD12C7601C814D904EA04FB0438
:1005300084F5F80171908F018F8580FF0BC0E881F1
:10054000F9810084F185E02D20E144E060E070E075
:10055000CE010995EB85FC858D859E85E817F90709
:1005600038F470828B859C8501969C878B870BC0A5
:10057000E881F981672D70E0028CF38DE02DCE01CA
:100580000995019649F02FEFC21AD20AE20AF20A3F
:10059000CBCFB401C50102C0B601C701DF91CF9135
:1005A0001F910F91FF90EF90DF90CF90BF90AF9091
:1005B0009F908F907F900895CF93DF93EC01E88117
:1005C000F9810288F389E02D09958F3F2FEF92077B
:1005D00031F02D813E812F5F3F4F3E832D83DF9190
:1005E000CF9108958FEF9FEF089560E070E0CB0109
:1005F000089580E090E008950F931F93CF93DF93C9
:100600008C01EB016F3F8FEF780719F480E090E0E9
:100610000FC06A3031F46DE0F801808991890E9441
:100620008D006C2FF801808991890E948D00CE0188
:10063000DF91CF911F910F9108958F929F92BF925A
:10064000CF92DF92EF92FF920F931F93CF93DF939E
:1006500000D000D0CDB7DEB78C014B01C12CD12C1E
:100660007601C216D306E406F50644F5F401B1900E
:100670004F01FAE0BF120EC06DE0F8018089918948
:1006800029833A834B835C830E948D005C814B817C
:100690003A8129816B2DF8018089918929833A83D8
:1006A0004B835C830E948D00FFEFCF1ADF0AEF0AB5
:1006B000FF0A5C814B813A812981D3CFCA01B901FC
:1006C0000F900F900F900F90DF91CF911F910F918E
:1006D000FF90EF90DF90CF90BF909F908F90089504
:1006E000CB010895CF93DF93EC0188899989DC01D0
:1006F000ED91FC910480F581E02D0995892B59F04D
:1007000088899989DC01ED91FC910680F781E02DC3
:10071000DF91CF9109948FEF9FEFDF91CF910895F3
:10072000CF93DF93EC0188899989DC01ED91FC91ED
:100730000480F581E02D0995892B59F088899989E4
:10074000DC01ED91FC910084F185E02DDF91CF91EA
:1007500009948FEF9FEFDF91CF910895AF92BF92F1
:10076000CF92DF92EF92FF920F931F93CF93DF937D
:1007700000D000D0CDB7DEB78C015B01C12CD12CED
:100780007601F80180899189DC01ED91FC91068068
:10079000F781E02D29833A834B835C830995298176
:1007A0003A814B815C818F3F71F0C216D306E4061B
:1007B000F5064CF4D5018D935D01BFEFCB1ADB0A32
:1007C000EB0AFB0ADECFC701B6010F900F900F9026
:1007D0000F90DF91CF911F910F91FF90EF90DF90DD
:1007E000CF90BF90AF900895DC0150968D919C9171
:1007F0005197DC01ED91FC910480F581E02D099485
:1008000080E090E0089580E090E0089580E090E03E
:10081000089580E090E0089508950895089508955A
:100820000E94E10A0C94490A0C94490A089508951B
:100830000C94490ADC01ED91FC91369720813181BD
:10084000820F931F0C941804FB0120813181FC015D
:1008500031832083FB0142815381F9013697208146
:100860003181FC01E20FF31F51834083089524E599
:1008700031E0FC01318320832EE531E0358B248B80
:1008800064E671E00C942404DC01ED91FC91369750
:1008900020813181820F931F0C943704CF93DF9313
:1008A000EC010E943704CE01DF91CF910C94490AEC
:1008B000DC01ED91FC91369720813181820F931FED
:1008C0000C944E040C94490A1F920F920FB60F928B
:1008D00011242F933F934F935F936F937F938F9345
:1008E0009F93AF93BF93EF93FF938CE891E00E94A7
:1008F000F700FF91EF91BF91AF919F918F917F9101
:100900006F915F914F913F912F910F900FBE0F907C
:100910001F9018951F920F920FB60F9211242F93CC
:100920008F939F93EF93FF93E0919C01F0919D0132
:100930008081E091A201F091A30182FD12C090811B
:100940008091A5018F5F8F732091A601821751F0CE
:10095000E091A501F0E0E457FE4F958F8093A5014B
:1009600001C08081FF91EF919F918F912F910F9006
:100970000FBE0F901F9018951F920F920FB60F92F7
:1009800011242F933F938F939F93AF93BF938091A5
:10099000700190917101A0917201B0917301309139
:1009A0006F0123E0230F2D3720F40196A11DB11D07
:1009B00005C026E8230F0296A11DB11D20936F01EB
:1009C0008093700190937101A0937201B0937301B1
:1009D00080916B0190916C01A0916D01B0916E01BD
:1009E0000196A11DB11D80936B0190936C01A093A2
:1009F0006D01B0936E01BF91AF919F918F913F9127
:100A00002F910F900FBE0F901F9018951F920F926D
:100A10000FB60F9211242F933F934F935F936F93D1
:100A20007F938F939F93AF93BF93EF93FF93E09147
:100A30000201F09103010995FF91EF91BF91AF91F0
:100A40009F918F917F916F915F914F913F912F91E6
:100A50000F900FBE0F901F9018951F920F920FB618
:100A60000F9211242F933F934F935F936F937F9334
:100A70008F939F93AF93BF93EF93FF93E091000108
:100A8000F09101010995FF91EF91BF91AF919F9175
:100A90008F917F916F915F914F913F912F910F9027
:100AA0000FBE0F901F9018951F920F920FB60F92C6
:100AB00011244F925F926F927F928F929F92AF928A
:100AC000BF92CF92DF92EF92FF920F931F932F93DB
:100AD0003F934F935F936F937F938F939F93AF93C6
:100AE000BF93EF93FF930E94B401892B09F041C09B
:100AF0008091800190918101A0918201B091830148
:100B0000409178015091790160917A0170917B0157
:100B1000841B950BA60BB70BB7FD2BC080917401FE
:100B200090917501A0917601B091770140917C017F
:100B300050917D0160917E0170917F01841B950B26
:100B4000A60BB70BB7FD15C00E945B0200917401A4
:100B5000109175012091760130917701DC01CB0174
:100B6000801B910BA20BB30B0B97A105B10508F0ED
:100B700014C10E94B401019709F041C0809178012D
:100B800090917901A0917A01B0917B01409180010F
:100B9000509181016091820170918301841B950BBA
:100BA000A60BB70BB7FD2BC080917C0190917D0106
:100BB000A0917E01B0917F01409174015091750127
:100BC0006091760170917701841B950BA60BB70B92
:100BD000B7FD15C00E945B0200917C0110917D0160
:100BE00020917E0130917F01DC01CB01801B910BB4
:100BF000A20BB30B0B97A105B10508F0D9C08091EA
:100C00006A0181111AC08091780190917901A091B7
:100C10007A01B0917B0140918001509181016091F6
:100C2000820170918301841B950BA60BB70B1816DC
:100C300019061A061B060CF4C6C080916A018823A7
:100C400099F18091800190918101A0918201B091F0
:100C50008301409178015091790160917A017091FE
:100C60007B01841B950BA60BB70B181619061A06E9
:100C70001B06D4F48091780190917901A0917A01BA
:100C8000B0917B0140918401509185016091860172
:100C900070918701841B950BA60BB70B18161906CC
:100CA0001A061B060CF49DC080916A01882309F482
:100CB0006FC08EE00E9444026C01CC0CDD1C8C0DD8
:100CC0009D1D6C0128E1C21A2CEFD20A8FE00E9410
:100CD00044025C01E12CF12CC701B6010E94B3086B
:100CE0002B013C01B501BB0C880B990B0E94B50888
:100CF0009B01AC01C301B2010E94190920E030E060
:100D000040E85AE30E94190920E030E040E05FE348
:100D10000E9419090E9484084B015C010E945B0239
:100D2000009188011091890120918A0130918B01F5
:100D3000DC01CB01801B910BA20BB30BC816D906AB
:100D4000EA06FB0670F40E945B02609388017093D0
:100D5000890180938A0190938B0161E08DE00E946C
:100D6000D8010E945B02C0908801D0908901E09078
:100D70008A01F0908B01DC01CB018C199D09AE0931
:100D8000BF09A12CB12C88169906AA06BB0660F5EE
:100D900060E08DE00E94D80127C00E945B02609352
:100DA00078017093790180937A0190937B01E1CE71
:100DB0000E945B02609380017093810180938201A5
:100DC000909383011CCF81E080936A010E945B02B3
:100DD00060938401709385018093860190938701CD
:100DE0002CCF10926A0160CFFF91EF91BF91AF912C
:100DF0009F918F917F916F915F914F913F912F9133
:100E00001F910F91FF90EF90DF90CF90BF90AF9028
:100E10009F908F907F906F905F904F900F900FBE3C
:100E20000F901F901895ACE8B1E013961C921E929B
:100E3000129748EE53E060E070E014964D935D9396
:100E40006D937C93179782E291E011969C938E9319
:100E500085EC90E01D969C938E931C9784EC90E01B
:100E60001F969C938E931E9780EC90E051969C93D6
:100E70008E93509781EC90E053969C938E9352976B
:100E800082EC90E055969C938E93549786EC90E07C
:100E900057969C938E93569759961C9259975A96AB
:100EA0001C925A975B961C925B975C961C925C977F
:100EB000E9E2F2E081E290E0908F878B118E128E52
:100EC000138E46E050E060E070E0448F558F668FEF
:100ED000778F10A211A212A213A280E284A316A2FD
:100EE00015A211A68BE292E090A787A384E591E07A
:100EF000918380838EE591E0958B848B1682158299
:100F00001086178212861186148613861686158619
:100F1000108A178682E391E093838283B38BA28B3E
:100F200080E1818B0895789484B5826084BD84B516
:100F3000816084BD85B5826085BD85B5816085BDD4
:100F400080916E00816080936E001092810080918C
:100F50008100826080938100809181008160809314
:100F60008100809180008160809380008091B10039
:100F700084608093B1008091B00081608093B00064
:100F800080917A00846080937A0080917A008260F8
:100F900080937A0080917A00816080937A008091BA
:100FA0007A00806880937A001092C100E0919C01E1
:100FB000F0919D0182E08083E0919801F091990188
:100FC0001082E0919A01F0919B0180E18083109260
:100FD000A401E091A001F091A10186E08083E0915D
:100FE0009E01F0919F01808180618083E0919E014C
:100FF000F0919F01808188608083E0919E01F09153
:101000009F01808180688083E0919E01F0919F0123
:1010100080818F7D80830E945B0260938801709342
:10102000890180938A0190938B016093840170936E
:10103000850180938601909387016093800170936E
:101040008101809382019093830160937C0170936E
:101050007D0180937E0190937F016093780170936E
:10106000790180937A0190937B016093740170936E
:101070007501809376019093770161E08DE00E9485
:10108000080260E082E00E94080261E082E00E94C3
:10109000D80160E08EE00E94080260E08FE00E94CC
:1010A00008028091B00082608093B00089EF809345
:1010B000B300809170008260809370008091B100D5
:1010C00084608093B100789487E692E09093010168
:1010D00080930001809169008C7F82608093690019
:1010E000E89A82E792E09093030180930201809155
:1010F00069008C6080936900E99A0E948101FDCFAC
:1011000089E292E00C9437040E94F80888F09F5717
:1011100098F0B92F9927B751B0F0E1F0660F771F1B
:10112000881F991F1AF0BA95C9F714C0B13091F011
:101130000E941209B1E008950C941209672F782FCC
:101140008827B85F39F0B93FCCF3869577956795D6
:10115000B395D9F73EF490958095709561957F4F42
:101160008F4F9F4F0895E89409C097FB3EF49095E8
:101170008095709561957F4F8F4F9F4F9923A9F070
:10118000F92F96E9BB279395F695879577956795FF
:10119000B795F111F8CFFAF4BB0F11F460FF1BC043
:1011A0006F5F7F4F8F4F9F4F16C0882311F096E9D6
:1011B00011C0772321F09EE8872F762F05C0662384
:1011C00071F096E8862F70E060E02AF09A95660F3D
:1011D000771F881FDAF7880F9695879597F90895F6
:1011E00057FD9058440F551F59F05F3F71F04795D8
:1011F000880F97FB991F61F09F3F79F087950895BD
:10120000121613061406551FF2CF4695F1DF08C0DB
:10121000161617061806991FF1CF869571056105F8
:1012200008940895E894BB2766277727CB0197F9A0
:1012300008950E942C090C949D090E948F0938F092
:101240000E94960920F0952311F00C9486090C94C5
:101250008C0911240C9413090E94F00870F3959FD7
:10126000C1F3950F50E0551F629FF001729FBB279D
:10127000F00DB11D639FAA27F00DB11DAA1F649F39
:101280006627B00DA11D661F829F2227B00DA11DEC
:10129000621F739FB00DA11D621F839FA00D611D72
:1012A000221F749F3327A00D611D231F849F600D93
:1012B000211D822F762F6A2F11249F5750409AF0BC
:1012C000F1F088234AF0EE0FFF1FBB1F661F771F48
:1012D000881F91505040A9F79E3F510580F00C9413
:1012E00086090C9413095F3FE4F3983ED4F3869586
:1012F00077956795B795F795E7959F5FC1F7FE2BB3
:10130000880F911D9695879597F9089597F99F678E
:1013100080E870E060E008959FEF80EC089500247D
:101320000A941616170618060906089500240A944A
:1013300012161306140605060895092E0394000CD0
:1013400011F4882352F0BB0F40F4BF2B11F460FF5F
:1013500004C06F5F7F4F8F4F9F4F0895EE0FFF1FA9
:101360000590F491E02D0994CF93DF93823091059D
:1013700010F482E090E0E0915502F091560220E0F6
:1013800030E0C0E0D0E0309711F140815181481742
:101390005907C0F04817590761F48281938120975B
:1013A00019F09B838A832BC0909356028093550239
:1013B00026C02115310519F04217530718F49A0178
:1013C000BE01DF01EF010280F381E02DDCCF2115AA
:1013D000310509F1281B390B2430310590F41296A0
:1013E0008D919C9113976115710521F0FB019383F9
:1013F000828304C09093560280935502FD01329679
:1014000044C0FD01E20FF31F8193919322503109F3
:101410002D933C933AC02091530230915402232BD8
:1014200041F420910601309107013093540220933A
:10143000530220910401309105012115310541F439
:101440002DB73EB74091080150910901241B350B7F
:10145000E0915302F0915402E217F307A0F42E1B1F
:101460003F0B2817390778F0AC014E5F5F4F241708
:10147000350748F04E0F5F1F5093540240935302BC
:101480008193919302C0E0E0F0E0CF01DF91CF9132
:1014900008950F931F93CF93DF93009709F48CC0A7
:1014A000FC0132971382128200915502109156026C
:1014B0000115110581F420813181820F931F209144
:1014C0005302309154022817390779F5F0935402EA
:1014D000E093530271C0D80140E050E0AE17BF075F
:1014E00050F412962D913C911397AD0121153105C1
:1014F00009F1D901F3CF9D01DA01338322836081A1
:101500007181860F971F8217930769F4EC01288178
:101510003981260F371F2E5F3F4F318320838A8109
:101520009B8193838283452B29F4F0935602E093A9
:10153000550242C01396FC93EE931297ED01499128
:1015400059919E01240F351FE217F30771F4808132
:101550009181840F951F029611969C938E938281A0
:10156000938113969C938E931297E0E0F0E0D8015C
:1015700012968D919C911397009719F0F8018C01A8
:10158000F6CF8D919C9198012E5F3F4F820F931F54
:1015900020915302309154022817390769F430978B
:1015A00029F4109256021092550202C01382128240
:1015B0001093540200935302DF91CF911F910F912A
:1015C000089581E090E0F8940C94E60A10E0C2E6F9
:1015D000D0E004C0FE010E94AE092196C336D107B7
:0615E000C9F7F894FFCFEB
:1015E6007D027D020000570280001400000000000A
:1015F60000000000ECFFECFF00000000000000000F
:10160600000018019400E100BF00D3005F01000054
:1016160000000E0414040C04090406040304000468
:10162600F403AE039003720370031D03FC0214005F
:101636000000000037044E04ECFFECFF00004404F9
:0A1646005804540110011A015E015E
:107800000C94343C0C94513C0C94513C0C94513CE1
:107810000C94513C0C94513C0C94513C0C94513CB4
:107820000C94513C0C94513C0C94513C0C94513CA4
:107830000C94513C0C94513C0C94513C0C94513C94
:107840000C94513C0C94513C0C94513C0C94513C84
:107850000C94513C0C94513C0C94513C0C94513C74
:107860000C94513C0C94513C11241FBECFEFD8E036
:10787000DEBFCDBF11E0A0E0B1E0ECE9FFE702C060
:1078800005900D92A230B107D9F712E0A2E0B1E065
:1078900001C01D92AD30B107E1F70E942D3D0C945F
:1078A000CC3F0C94003C982F959595959595959582
:1078B000905D8F708A307CF0282F295A8091C0000B
:1078C00085FFFCCF9093C6008091C00085FFFCCF60
:1078D0002093C6000895282F205DF0CF982F809127
:1078E000C00085FFFCCF9093C6000895EF92FF92F1
:1078F0000F931F93EE24FF2487018091C00087FD22
:1079000017C00894E11CF11C011D111D81E4E8164B
:1079100082E4F8068FE0080780E0180770F3E09132
:107920000401F091050109958091C00087FFE9CF1E
:107930008091C6001F910F91FF90EF9008950E94D3
:10794000763C982F8091C00085FFFCCF9093C600B5
:1079500091362CF490330CF09053892F089597555D
:10796000892F08951F930E949F3C182F0E949F3CCF
:107970001295107F810F1F9108951F93182F882350
:1079800021F00E94763C1150E1F71F9108951F935A
:10799000182F0E94763C803249F0809103018F5F5E
:1079A000809303018530C1F01F9108958091C0003C
:1079B00085FFFCCF84E18093C6008091C00085FFE5
:1079C000FCCF1093C6008091C00085FFFCCF80E102
:1079D0008093C6001F910895E0910401F091050184
:1079E00009951F9108950E94763C803241F0809164
:1079F00003018F5F80930301853081F008958091AA
:107A0000C00085FFFCCF84E18093C6008091C00058
:107A100085FFFCCF80E18093C6000895E0910401CA
:107A2000F09105010995089540E951E08823A1F0FE
:107A30002D9A28EE33E0FA013197F1F721503040CA
:107A4000D1F72D9828EE33E0FA013197F1F7215064
:107A50003040D1F7815061F708953F924F925F9285
:107A60006F927F928F929F92AF92BF92CF92DF924E
:107A7000EF92FF920F931F93CF93DF93000080E16B
:107A80008093C4001092C50088E18093C10086E015
:107A90008093C2005098589A259A81E00E94143D24
:107AA00024E1F22E9EE1E92E85E9D82E0FE0C02ECA
:107AB00010E1B12EAA24A394B1E49B2EA6E58A2E50
:107AC000F2E57F2EE0E26E2E79E4572E63E5462E36
:107AD00050E5352E0E94763C8033B1F18133B9F107
:107AE000803409F46FC0813409F476C0823409F41B
:107AF00085C0853409F488C0803531F1823521F1A3
:107B0000813511F1853509F485C0863509F48DC0BC
:107B1000843609F496C0843709F403C1853709F423
:107B200072C1863709F466C0809103018F5F80932C
:107B30000301853079F6E0910401F0910501099582
:107B40000E94763C803351F60E94F33CC3CF0E94E2
:107B5000763C803249F78091C00085FFFCCFF092DF
:107B6000C6008091C00085FFFCCF9092C600809136
:107B7000C00085FFFCCF8092C6008091C00085FFC9
:107B8000FCCF7092C6008091C00085FFFCCF609250
:107B9000C6008091C00085FFFCCF5092C600809146
:107BA000C00085FFFCCF4092C6008091C00085FFD9
:107BB000FCCF3092C6008091C00085FFFCCFB09210
:107BC000C60088CF0E94763C863808F4BDCF0E945C
:107BD000763C0E94F33C7ECF0E94763C803809F4CC
:107BE0009CC0813809F40BC1823809F43CC1883942
:107BF00009F48FC080E00E94C73C6CCF84E10E94F2
:107C0000BD3C0E94F33C66CF85E00E94BD3C0E94D3
:107C1000F33C60CF0E94763C809306010E94763C44
:107C2000809307010E94F33C55CF0E94763C80333D
:107C300009F41DC183E00E94BD3C80E00E94C73C66
:107C400049CF0E94763C809309020E94763C809343
:107C5000080280910C028E7F80930C020E94763C79
:107C6000853409F415C18091080290910902892B8D
:107C700089F000E010E00E94763CF801E85FFE4FDA
:107C800080830F5F1F4F80910802909109020817AF
:107C9000190788F30E94763C803209F045CF809125
:107CA0000C0280FF01C16091060170910701660F0F
:107CB000771F7093070160930601A0910802B091AD
:107CC00009021097C9F0E8E0F1E09B01AD014E0F09
:107CD0005F1FF999FECF32BD21BD819180BDFA9A17
:107CE000F99A2F5F3F4FE417F50799F76A0F7B1F4B
:107CF00070930701609306018091C00085FFFCCF5F
:107D0000F092C6008091C00085FFFCCFB092C60003
:107D1000E1CE83E00E94C73CDDCE82E00E94C73CFA
:107D2000D9CE0E94763C809309020E94763C8093D3
:107D300008028091060190910701880F991F909386
:107D40000701809306010E94763C853409F4A6C0A1
:107D500080910C028E7F80930C020E94763C8032D0
:107D600009F0B8CE8091C00085FFFCCFF092C6002C
:107D7000609108027091090261157105B9F140E046
:107D800050E080910C02A82FA170B82FB27011C0E2
:107D9000BB2309F45CC0E0910601F0910701319624
:107DA000F0930701E09306014F5F5F4F46175707B7
:107DB000E8F4AA2369F3F999FECF209106013091E6
:107DC000070132BD21BDF89A90B58091C00085FFB2
:107DD000FCCF9093C6002F5F3F4F30930701209355
:107DE00006014F5F5F4F4617570718F38091C00099
:107DF00085FDE5CE8091C00085FFF8CFE0CE81E023
:107E00000E94C73C67CE0E94763C803209F08CCE3F
:107E10008091C00085FFFCCFF092C6008091C00029
:107E200085FFFCCFE092C6008091C00085FFFCCFAB
:107E3000D092C6008091C00085FFFCCFC092C600E2
:107E40008091C00085FFFCCFB092C60043CEE09188
:107E50000601F091070194918091C00085FFFCCF4D
:107E60009093C6009CCF80E10E94C73C33CE0E9415
:107E7000763C0E94763C182F0E94763C112309F430
:107E800083C0113009F484C08FE00E94C73C22CE29
:107E900080910C02816080930C02E5CE80910C02EF
:107EA000816080930C0259CF809107018823880F4D
:107EB000880B8A2180930B02809106019091070123
:107EC000880F991F90930701809306018091080203
:107ED00080FF09C080910802909109020196909359
:107EE000090280930802F894F999FECF1127E091D6
:107EF0000601F0910701C8E0D1E08091080290915D
:107F00000902103091F40091570001700130D9F34B
:107F100003E000935700E89500915700017001308D
:107F2000D9F301E100935700E89509901990009169
:107F3000570001700130D9F301E000935700E89534
:107F40001395103498F011270091570001700130FB
:107F5000D9F305E000935700E895009157000170B0
:107F60000130D9F301E100935700E895329602976A
:107F700009F0C7CF103011F00296E5CF112480919F
:107F8000C00085FFB9CEBCCE8EE10E94C73CA2CD19
:0C7F900085E90E94C73C9ECDF894FFCF0D
:027F9C00800063
:040000030000780081
:00000001FF