:100000000C945E000C9496060C946F060C9486007B
:100010000C9486000C9486000C9486000C94860048
:100020000C9486000C9486000C9486000C94860038
:100030000C9486000C9486000C9486000C94860028
:100040000C9425060C9486000C94F3050C94CD05B5
:100050000C9486000C9486000C9486000C94860008
:100060000C9486000C948600000000080002010039
:100070000003040700000000000000000000000072
:10008000250028002B0000000000240027002A0083
:10009000040404040404040402020202020203032E
:1000A0000303030301020408102040800102040836
:1000B0001020010204081020BD060E0811241FBEE6
:1000C000CFEFD8E0DEBFCDBF11E0A0E0B1E0E8E7C0
:1000D000F8E102C005900D92AA38B107D9F722E0E5
:1000E000AAE8B1E001C01D92A336B207E1F710E023
:1000F000CDE5D0E004C02197FE010E941208CC3566
:10010000D107C9F70E943D070C942F0C0C940000F6
:10011000DC01ED91FC910190F081E02D0994CF92EA
:10012000DF92EF92FF920F931F93CF93DF936C01B7
:100130007A018B01C0E0D0E0CE15DF0589F0D8014F
:100140006D918D01D601ED91FC910190F081E02D32
:10015000C6010995892B11F47E0102C02196ECCFCE
:10016000C701DF91CF911F910F91FF90EF90DF902A
:10017000CF900895FC01918D828D981761F0828D4A
:10018000DF01A80FB11D5D968C91928D9F5F9F73CB
:10019000928F90E008958FEF9FEF0895FC01918D6D
:1001A000828D981731F0828DE80FF11D858D90E0DA
:1001B00008958FEF9FEF0895FC01918D228D892F77
:1001C00090E0805C9F4F821B91098F73992708955F
:1001D00088E991E00E94DC0021E0892B09F420E00D
:1001E000822F0895FC01848DDF01A80FB11DA35A51
:1001F000BF4F2C91848D90E001968F739927848F47
:10020000A689B7892C93A089B1898C9180648C933D
:10021000938D848D981306C00288F389E02D808128
:100220008F7D80830895EF92FF920F931F93CF935A
:10023000DF93EC0181E0888F9B8D8C8D981305C036
:10024000E889F989808185FD24C0F62E0B8D10E0A8
:100250000F5F1F4F0F731127E02E8C8DE8120CC01B
:100260000FB607FCFACFE889F989808185FFF5CFC1
:10027000CE010E94F200F1CF8B8DFE01E80FF11D3F
:10028000E35AFF4FF0820B8FEA89FB8980818062FD
:1002900007C0EE89FF896083E889F98980818064DD
:1002A000808381E090E0DF91CF911F910F91FF90CB
:1002B000EF900895CF93DF93EC01888D8823C9F0E8
:1002C000EA89FB89808185FD05C0A889B9898C915F
:1002D00086FD0FC00FB607FCF5CF808185FFF2CFFA
:1002E000A889B9898C9185FFEDCFCE010E94F200DB
:1002F000E7CFDF91CF91089580E090E0892B29F03E
:100300000E94E80081110C940000089590E0FC0127
:10031000E859FF4F3491FC01EC55FF4F2491FC014B
:10032000E057FF4FE491EE2309F43BC0332339F14A
:10033000333091F038F43130A9F0323001F584B522
:100340008F7D12C0373091F03830A1F03430B9F4DD
:10035000809180008F7D03C0809180008F77809393
:1003600080000DC084B58F7784BD09C08091B00036
:100370008F7703C08091B0008F7D8093B000F0E054
:10038000EE0FFF1FE458FF4FA591B4918FB7F8947B
:10039000EC91611103C020952E2301C02E2B2C93CC
:1003A0008FBF08952FB7F8946091900170919101DB
:1003B00080919201909193012FBF08950895CF935A
:1003C000DF93EC01E881F9810288F389E02D09953A
:1003D0008F3F2FEF920731F02D813E812F5F3F4FEE
:1003E0003E832D83DF91CF9108958FEF9FEF089586
:1003F00060E070E0CB01089580E090E008950F93F5
:100400001F93CF93DF938C01EB016F3F8FEF780742
:1004100019F480E090E00FC06A3031F46DE0F8012B
:10042000808991890E9488006C2FF80180899189C8
:100430000E948800CE01DF91CF911F910F91089506
:100440008F929F92BF92CF92DF92EF92FF920F9383
:100450001F93CF93DF9300D000D0CDB7DEB78C01D0
:100460004B01C12CD12C7601C216D306E406F50649
:1004700044F5F401B1904F01FAE0BF120EC06DE0F7
:10048000F8018089918929833A834B835C830E9498
:1004900088005C814B813A8129816B2DF80180892C
:1004A000918929833A834B835C830E948800FFEF04
:1004B000CF1ADF0AEF0AFF0A5C814B813A8129815A
:1004C000D3CFCA01B9010F900F900F900F90DF9119
:1004D000CF911F910F91FF90EF90DF90CF90BF9041
:1004E0009F908F900895CB010895CF93DF93EC01F7
:1004F00088899989DC01ED91FC910480F581E02DDA
:100500000995892B59F088899989DC01ED91FC9135
:100510000680F781E02DDF91CF9109948FEF9FEF57
:10052000DF91CF910895CF93DF93EC01888999896A
:10053000DC01ED91FC910480F581E02D0995892B7A
:1005400059F088899989DC01ED91FC910084F1854D
:10055000E02DDF91CF9109948FEF9FEFDF91CF9145
:100560000895AF92BF92CF92DF92EF92FF920F93D6
:100570001F93CF93DF9300D000D0CDB7DEB78C01AF
:100580005B01C12CD12C7601F80180899189DC01B5
:10059000ED91FC910680F781E02D29833A834B830E
:1005A0005C83099529813A814B815C818F3F71F091
:1005B000C216D306E406F5064CF4D5018D935D0111
:1005C000BFEFCB1ADB0AEB0AFB0ADECFC701B6018D
:1005D0000F900F900F900F90DF91CF911F910F917F
:1005E000FF90EF90DF90CF90BF90AF900895DC0127
:1005F00050968D919C915197DC01ED91FC91048076
:10060000F581E02D099480E090E0089580E090E08D
:100610000895089580E090E00895CB01089580E06A
:1006200090E008951F93CF93DF93EC01162F8F85F1
:1006300080FF0BC0E881F9810084F185E02D20E185
:1006400044E060E070E0CE010995EB85FC852D85E6
:100650003E85812F90E0E217F30758F410832B8535
:100660003C852F5F3F4F3C872B87DF91CF911F91B8
:100670000895E881F981028CF38DE02DBC01CE0153
:10068000DF91CF911F910994AF92BF92CF92DF92E9
:10069000EF92FF920F931F93CF93DF9300D000D080
:1006A000CDB7DEB78C015B01C12CD12C7601C2160F
:1006B000D306E406F506B4F4F50161915F01C801C3
:1006C00029833A834B835C830E94120329813A81F8
:1006D0004B815C81019649F06FEFC61AD60AE60A93
:1006E000F60AE5CFB901CA0102C0B601C7010F90F1
:1006F0000F900F900F90DF91CF911F910F91FF906E
:10070000EF90DF90CF90BF90AF9008950895CF9372
:10071000DF93EC01E881F98136970190F081E02DBB
:10072000E80FF91F83899489DC01ED91FC91048421
:10073000F585E02D0995019659F4E881F981369700
:100740000190F081E02DEC0FFD1F85818160858394
:10075000CE01DF91CF910895CF93DF93EC01E88133
:10076000F98136970190F081E02DE80FF91F838918
:1007700094890E941203019699F4E881F9813697D1
:100780000190F081E02DEC0FFD1F8581982F926084
:1007900023893489232B11F0958302C083608583DC
:1007A000CE01DF91CF910895089508950E944509E3
:1007B0000C94AD080C94AD080C94AD080895089500
:1007C0000C94AD08DC01ED91FC91369720813181CC
:1007D000820F931F0C94E003FB0120813181FC0107
:1007E00031832083FB0142815381F90136972081B7
:1007F0003181FC01E20FF31F51834083089524E50A
:1008000031E0FC01318320832EE531E0358B248BF0
:1008100064E671E00C94EC03DC01ED91FC913697F9
:1008200020813181820F931F0C94FF03CF93DF93BC
:10083000EC010E94FF03CE01DF91CF910C94AD0833
:10084000DC01ED91FC91369720813181820F931F5D
:100850000C9416042F923F924F925F926F927F9268
:100860008F929F92AF92BF92CF92DF92EF92FF92C0
:100870000F931F93CF93DF93CDB7DEB764970FB677
:10088000F894DEBF0FBECDBF0E94D201009194014B
:10089000109195012091960130919701DC01CB01D7
:1008A000801B910BA20BB30B893E9340A105B105B0
:1008B00008F45AC10E94D20100919401109195014F
:1008C00020919601309197016B017C01C01AD10AE9
:1008D000E20AF30AE0913502F09136023697019070
:1008E000F081E02DEB5CFD4F81899289009711F03A
:1008F0000E948703E0913502F0913602369701900D
:10090000F081E02DE95CFD4F8181928185FD18C069
:1009100086FF05C092FD17C083E791E01FC087FFE7
:1009200015C09C012227307292FF05C0232B89F449
:100930008CE791E013C0232B79F485E891E00EC099
:100940008AE691E00BC08EE691E008C080E090E07E
:1009500005C087E791E002C081E891E0FF92EF9245
:10096000DF92CF929F938F931F9284E18F93CE015A
:1009700001961C019F938F930E944A092C01990FA5
:1009800066087708E0913502F091360236970190BB
:10099000F081E02DE95CFD4FC284D384E484F584CA
:1009A000C418D508E608F708818192818E709927CE
:1009B0000FB6F894DEBF0FBECDBF049739F54601E0
:1009C0005701181419041A041B04ACF4B1E08B1A73
:1009D0009108A108B108E0913502F09136023697EE
:1009E0000190F081E02DEB5CFD4F608985E392E0A2
:1009F0000E94AC03E6CFD701C601F7FE03C080E03A
:100A000090E0DC01C81AD90AEA0AFB0AE091350233
:100A1000F091360236970190F081E02DEB5CFD4FAE
:100A200003891489F801878580FF0CC00190F0814B
:100A3000E02D0084F185E02D20E144E060E070E0ED
:100A4000C8010995D801ED91FC91008CF18DE02D44
:100A5000A3019201B101C80109952091350230919D
:100A600036026F3F7F4F81F4F90136970190F08194
:100A7000E02DEB5CFD4F8581982F9260438954896E
:100A8000452B09F46EC09583F90136970190F081EA
:100A9000E02DE95CFD4F818192818E70992702974C
:100AA000B9F0E0913502F091360236970190F0816D
:100AB000E02DE95CFD4F1286138614861586818130
:100AC000928196FF1FC085E392E00E9487031AC0BF
:100AD0001C141D041E041F0424F7E1E0CE1AD108E3
:100AE000E108F108E0913502F09136023697019065
:100AF000F081E02DEB5CFD4F608985E392E00E9480
:100B0000AC03E6CFE0913502F091360236970190C2
:100B1000F081E02DEB5CFD4F81899289009711F007
:100B20000E9487036AE085E392E00E94AC0385E3BC
:100B300092E00E9487030E94D20160939401709317
:100B40009501809396019093970190918A0181E09D
:100B5000892780938A0160918A018DE00E94860135
:100B600003C08360858390CF64960FB6F894DEBF90
:100B70000FBECDBFDF91CF911F910F91FF90EF90EE
:100B8000DF90CF90BF90AF909F908F907F906F90AD
:100B90005F904F903F902F9008951F920F920FB645
:100BA0000F9211242F933F934F935F936F937F93F3
:100BB0008F939F93AF93BF93EF93FF9388E991E057
:100BC0000E94F200FF91EF91BF91AF919F918F91A1
:100BD0007F916F915F914F913F912F910F900FBE39
:100BE0000F901F9018951F920F920FB60F9211241D
:100BF0002F938F939F93EF93FF93E091A801F09130
:100C0000A9018081E091AE01F091AF0182FD12C097
:100C100090818091B1018F5F8F732091B201821713
:100C200051F0E091B101F0E0E856FE4F958F8093CE
:100C3000B10101C08081FF91EF919F918F912F9120
:100C40000F900FBE0F901F9018951F920F920FB626
:100C50000F9211242F933F938F939F93AF93BF9342
:100C60008091900190919101A0919201B091930196
:100C700030918F0123E0230F2D3720F40196A11D21
:100C8000B11D05C026E8230F0296A11DB11D2093BA
:100C90008F018093900190939101A0939201B09362
:100CA000930180918B0190918C01A0918D01B09165
:100CB0008E010196A11DB11D80938B0190938C0133
:100CC000A0938D01B0938E01BF91AF919F918F91B1
:100CD0003F912F910F900FBE0F901F9018951F926C
:100CE0000F920FB60F9211242F933F934F935F9360
:100CF0006F937F938F939F93AF93BF93EF93FF93E4
:100D0000E0910201F09103010995FF91EF91BF91EC
:100D1000AF919F918F917F916F915F914F913F9193
:100D20002F910F900FBE0F901F9018951F920F924A
:100D30000FB60F9211242F933F934F935F936F93AE
:100D40007F938F939F93AF93BF93EF93FF93E09124
:100D50000001F09101010995FF91EF91BF91AF91D1
:100D60009F918F917F916F915F914F913F912F91C3
:100D70000F900FBE0F901F901895A8E9B1E0139641
:100D80001C921E92129748EE53E060E070E01496B9
:100D90004D935D936D937C93179782E291E011964A
:100DA0009C938E9385EC90E01D969C938E931C975C
:100DB00084EC90E01F969C938E931E9780EC90E0BD
:100DC00051969C938E93509781EC90E053969C9310
:100DD0008E93529782EC90E055969C938E93549705
:100DE00086EC90E057969C938E93569759961C925A
:100DF00059975A961C925A975B961C925B975C96F1
:100E00001C925C97E5E3F2E081E290E0908F878BA3
:100E1000118E128E138E46E050E060E070E0448F39
:100E2000558F668F778F10A211A212A213A280E2B3
:100E300084A316A215A211A687E392E090A787A328
:100E400084E591E0918380838EE591E0958B848B9E
:100E500016821582108617821286118614861386D2
:100E600016861586108A178682E391E09383828323
:100E7000B38BA28B80E1818B0895789484B58260D6
:100E800084BD84B5816084BD85B5826085BD85B52E
:100E9000816085BD80916E00816080936E001092AC
:100EA0008100809181008260809381008091810027
:100EB00081608093810080918000816080938000B8
:100EC0008091B10084608093B1008091B000816016
:100ED0008093B00080917A00846080937A00809142
:100EE0007A00826080937A0080917A00816080939A
:100EF0007A0080917A00806880937A001092C10015
:100F0000E091A801F091A90182E08083E091A40121
:100F1000F091A5011082E091A601F091A70180E176
:100F200080831092B001E091AC01F091AD0186E0B8
:100F30008083E091AA01F091AB0180818061808380
:100F4000E091AA01F091AB01808188608083E091FB
:100F5000AA01F091AB01808180688083E091AA01B1
:100F6000F091AB0180818F7D80830E94D2016093DC
:100F70009401709395018093960190939701E1EB12
:100F8000F0E02491EDE9F0E08491882399F090E07D
:100F9000880F991FFC01EA57FF4FA591B491FC01FE
:100FA000E458FF4F859194918FB7F894EC91E22B20
:100FB000EC938FBFE6EAF0E02491E2E9F0E084915F
:100FC0008823C1F090E0880F991FFC01EA57FF4F7A
:100FD000C591D491FC01E458FF4FA591B4919FB7FE
:100FE000F8948881E22FE0958E2388838C91E82302
:100FF000EC939FBF61E082E00E9486018AE294E068
:101000009093010180930001809169008C7F826040
:1010100080936900E89A0E947C01FDCF85E392E00D
:101020000C94FF03EE0FFF1F0590F491E02D09943F
:10103000CF93DF938230910510F482E090E0E0914D
:101040006102F091620220E030E0C0E0D0E0309731
:1010500011F14081518148175907C0F048175907CD
:1010600061F482819381209719F09B838A832BC03E
:10107000909362028093610226C02115310519F018
:101080004217530718F49A01BE01DF01EF010280F5
:10109000F381E02DDCCF2115310509F1281B390B37
:1010A0002430310590F412968D919C91139761151F
:1010B000710521F0FB019383828304C09093620247
:1010C00080936102FD01329644C0FD01E20FF31FDF
:1010D00081939193225031092D933C933AC02091F2
:1010E0005F0230916002232B41F420910601309180
:1010F00007013093600220935F0220910401309138
:1011000005012115310541F42DB73EB74091080185
:1011100050910901241B350BE0915F02F0916002B0
:10112000E217F307A0F42E1B3F0B2817390778F0BE
:10113000AC014E5F5F4F2417350748F04E0F5F1F1D
:101140005093600240935F028193919302C0E0E06C
:10115000F0E0CF01DF91CF9108950F931F93CF93CC
:10116000DF93009709F48CC0FC013297138212823E
:1011700000916102109162020115110581F4208134
:101180003181820F931F20915F02309160022817F6
:10119000390779F5F0936002E0935F0271C0D801DE
:1011A00040E050E0AE17BF0750F412962D913C91ED
:1011B0001397AD012115310509F1D901F3CF9D0137
:1011C000DA013383228360817181860F971F821732
:1011D000930769F4EC0128813981260F371F2E5FB0
:1011E0003F4F318320838A819B8193838283452B68
:1011F00029F4F0936202E093610242C01396FC93DB
:10120000EE931297ED01499159919E01240F351FDC
:10121000E217F30771F480819181840F951F029684
:1012200011969C938E938281938113969C938E93B7
:101230001297E0E0F0E0D80112968D919C911397FF
:10124000009719F0F8018C01F6CF8D919C919801CF
:101250002E5F3F4F820F931F20915F0230916002FB
:101260002817390769F4309729F410926202109216
:10127000610202C0138212821093600200935F0227
:10128000DF91CF911F910F91089581E090E0F89444
:101290000C942F0CAEE0B0E0E0E5F9E00C94060C05
:1012A0000D891E898F89988D26E02C831A830983E6
:1012B00097FF02C080E090E801979E838D83AE0186
:1012C000455E5F4F698D7A8DCE0101960E947A0945
:1012D0004D815E8157FD0AC02F8138854217530723
:1012E0000CF49A01F801E20FF31F10822E96E4E04D
:1012F0000C94220CACE0B0E0E0E8F9E00C94F80BC0
:101300007C016B018A01FC0117821682838181FFB7
:10131000BDC1CE0101964C01F7019381F60193FD09
:10132000859193FF81916F01882309F4ABC18532C8
:1013300039F493FD859193FF81916F01853229F4F2
:10134000B70190E00E94620BE7CF512C312C20E0D6
:101350002032A0F48B3269F030F4803259F08332BD
:1013600069F420612CC08D3239F0803339F421606A
:1013700026C02260246023C0286021C027FD27C02A
:1013800030ED380F3A3078F426FF06C0FAE05F9E61
:10139000300D1124532E13C08AE0389E300D1124D5
:1013A000332E20620CC08E3221F426FD6BC12064E6
:1013B00006C08C3611F4206802C0883641F4F6016C
:1013C00093FD859193FF81916F018111C1CF982F7A
:1013D0009F7D9554933028F40C5F1F4FFFE3F983F2
:1013E0000DC0833631F0833771F0833509F05BC06F
:1013F00022C0F801808189830E5F1F4F44244394EB
:10140000512C540115C03801F2E06F0E711CF80127
:10141000A080B18026FF03C0652D70E002C06FEF91
:101420007FEFC5012C870E94570B2C0183012C856F
:101430002F77222E17C03801F2E06F0E711CF801D1
:10144000A080B18026FF03C0652D70E002C06FEF61
:101450007FEFC5012C870E944C0B2C012C85206846
:10146000222E830123FC1BC0832D90E048165906D1
:10147000B0F4B70180E290E00E94620B3A94F4CF9E
:10148000F50127FC859127FE81915F01B70190E06E
:101490000E94620B31103A94F1E04F1A5108411446
:1014A000510471F7E5C0843611F0893639F5F80139
:1014B00027FF07C060817181828193810C5F1F4F7C
:1014C00008C060817181072E000C880B990B0E5F9C
:1014D0001F4F2F76722E97FF09C0909580957095BB
:1014E00061957F4F8F4F9F4F2068722E2AE030E02A
:1014F000A4010E949A0BA82EA81844C0853729F48D
:101500002F7EB22E2AE030E025C0F22FF97FBF2EC9
:101510008F36C1F018F4883579F0B4C0803719F0EF
:10152000883721F0AFC02F2F2061B22EB4FE0DC03E
:101530008B2D8460B82E09C024FF0AC09F2F9660AF
:10154000B92E06C028E030E005C020E130E002C03E
:1015500020E132E0F801B7FE07C06081718182812D
:1015600093810C5F1F4F06C06081718180E090E025
:101570000E5F1F4FA4010E949A0BA82EA818FB2DE6
:10158000FF777F2E76FE0BC0372D3E7FA51450F4DB
:1015900074FE0AC072FC08C0372D3E7E05C0BA2C0E
:1015A000372D03C0BA2C01C0B52C34FF0DC0FE018D
:1015B000EA0DF11D8081803311F4397E09C032FFBC
:1015C00006C0B394B39404C0832F867809F0B39413
:1015D00033FD13C030FF06C05A2CB31418F4530C5B
:1015E0005B18B32CB31468F4B70180E290E03C8739
:1015F0000E94620BB3943C85F5CFB31410F43B18F2
:1016000001C0312C34FF12C0B70180E390E03C8769
:101610000E94620B3C8532FF17C031FD03C088E792
:1016200090E002C088E590E0B7010CC0832F867877
:1016300059F031FF02C08BE201C080E237FD8DE23C
:10164000B70190E00E94620BA51438F4B70180E363
:1016500090E00E94620B5A94F7CFAA94F401EA0D2D
:10166000F11D8081B70190E00E94620BA110F5CFBF
:10167000332009F451CEB70180E290E00E94620B62
:101680003A94F6CFF7018681978102C08FEF9FEFE2
:101690002C96E2E10C94140CFC0105906150704012
:1016A0000110D8F7809590958E0F9F1F0895FC012B
:1016B0006150704001900110D8F7809590958E0F81
:1016C0009F1F08950F931F93CF93DF93FB012381F7
:1016D00021FD03C08FEF9FEF28C022FF16C0468177
:1016E0005781248135814217530744F4A081B18189
:1016F0009D012F5F3F4F318320838C93268137815B
:101700002F5F3F4F3783268310C0EB01092F182F1F
:101710000084F185E02D0995892BE1F68E819F816A
:1017200001969F838E83812F902FDF91CF911F9100
:101730000F910895FA01AA27283051F1203181F143
:10174000E8946F936E7F6E5F7F4F8F4F9F4FAF4FC9
:10175000B1E03ED0B4E03CD0670F781F891F9A1FDC
:10176000A11D680F791F8A1F911DA11D6A0F711D90
:10177000811D911DA11D20D009F468943F912AE09C
:10178000269F11243019305D3193DEF6CF01089584
:10179000462F4770405D4193B3E00FD0C9F7F6CFB5
:1017A000462F4F70405D4A3318F0495D31FD40527D
:1017B000419302D0A9F7EACFB4E0A6959795879513
:1017C00077956795BA95C9F70097610571050895F2
:1017D0009B01AC010A2E069457954795379527959E
:1017E000BA95C9F7620F731F841F951FA01D089536
:1017F0002F923F924F925F926F927F928F929F9221
:10180000AF92BF92CF92DF92EF92FF920F931F930E
:10181000CF93DF93CDB7DEB7CA1BDB0B0FB6F894BF
:10182000DEBF0FBECDBF09942A88398848885F84FF
:101830006E847D848C849B84AA84B984C884DF8070
:10184000EE80FD800C811B81AA81B981CE0FD11D54
:101850000FB6F894DEBF0FBECDBFED01089510E0C6
:10186000CDE5D0E004C0FE010E9412082196CE35DD
:08187000D107C9F7F894FFCF7E
:10187800DE01DE01000063028000140000000000A9
:1018880000000000ECFFECFF00000000000000007A
:10189800000013018F00DC00BA00CE005A010000DE
:1018A8000000D403DC03090306030F0303030A0340
:1018B800F702B1029302750273022002FF011400BD
:1018C80000000000FF031604ECFFECFF00000C040E
:1018D8002004540110011A015E01256C75002523AE
:1018E8006C6F00256C6F0025236C580025236C78DD
:0A18F80000256C5800256C780000F4
:00000001FF
