:100000000C9463000C942D060C9406060C948B0043
:100010000C948B000C948B000C948B000C94540665
:100020000C948B000C948B000C948B000C948B0024
:100030000C948B000C948B000C948B000C948B0014
:100040000C94BC050C948B000C948A050C946405EC
:100050000C948B000C948B000C948B000C948B00F4
:100060000C948B000C948B000000000023002600F1
:10007000290000000008000201000003040700003E
:1000800000000000000000000000250028002B00F8
:1000900000000000240027002A00040404040404D3
:1000A0000404020202020202030303030303010227
:1000B00004081020408001020408102001020408F6
:1000C0001020B606BC0811241FBECFEFD8E0DEBF5B
:1000D000CDBF11E0A0E0B1E0EAE0F4E102C005909C
:1000E0000D92A63BB107D9F722E0A6EBB1E001C023
:1000F0001D92A439B207E1F710E0C2E6D0E004C0D7
:100100002197FE010E94C008C136D107C9F70E949D
:1001100036070C94F8090C940000DC01ED91FC9179
:100120000190F081E02D0994CF92DF92EF92FF923F
:100130000F931F93CF93DF936C017A018B01C0E083
:10014000D0E0CE15DF0589F0D8016D918D01D60183
:10015000ED91FC910190F081E02DC6010995892B6C
:1001600011F47E0102C02196ECCFC701DF91CF913F
:100170001F910F91FF90EF90DF90CF900895FC01B9
:10018000918D828D981761F0828DDF01A80FB11DCE
:100190005D968C91928D9F5F9F73928F90E00895F2
:1001A0008FEF9FEF0895FC01918D828D981731F0AC
:1001B000828DE80FF11D858D90E008958FEF9FEF00
:1001C0000895FC01918D228D892F90E0805C9F4FD6
:1001D000821B91098F739927089589EC91E00E9401
:1001E000E10021E0892B09F420E0822F0895FC0131
:1001F000848DDF01A80FB11DA35ABF4F2C91848DB0
:1002000090E001968F739927848FA689B7892C93E4
:10021000A089B1898C9180648C93938D848D98137F
:1002200006C00288F389E02D80818F7D8083089548
:10023000EF92FF920F931F93CF93DF93EC0181E036
:10024000888F9B8D8C8D981305C0E889F9898081F2
:1002500085FD24C0F62E0B8D10E00F5F1F4F0F732E
:100260001127E02E8C8DE8120CC00FB607FCFACFD8
:10027000E889F989808185FFF5CFCE010E94F700DA
:10028000F1CF8B8DFE01E80FF11DE35AFF4FF08295
:100290000B8FEA89FB898081806207C0EE89FF8924
:1002A0006083E889F98980818064808381E090E0BF
:1002B000DF91CF911F910F91FF90EF900895CF9311
:1002C000DF93EC01888D8823C9F0EA89FB8980815E
:1002D00085FD05C0A889B9898C9186FD0FC00FB630
:1002E00007FCF5CF808185FFF2CFA889B9898C9171
:1002F00085FFEDCFCE010E94F700E7CFDF91CF91D0
:10030000089580E090E0892B29F00E94ED00811192
:100310000C9400000895833081F028F4813099F026
:100320008230A1F008958730A9F08830B9F0843088
:10033000D1F4809180008F7D03C0809180008F7701
:1003400080938000089584B58F7702C084B58F7D37
:1003500084BD08958091B0008F7703C08091B00074
:100360008F7D8093B00008951F93CF93DF93282F44
:1003700030E0F901EE58FF4F8491F901E255FF4F4B
:10038000D491F901E656FF4FC491CC23C9F0162F42
:1003900081110E948B01EC2FF0E0EE0FFF1FEA5756
:1003A000FF4FA591B4918FB7F894111105C09C919E
:1003B000ED2FE095E92302C0EC91ED2BEC938FBF7C
:1003C000DF91CF911F9108952FB7F8946091BF01ED
:1003D0007091C0018091C1019091C2012FBF089519
:1003E0000895CF93DF93EC01E881F9810288F389C6
:1003F000E02D09958F3F2FEF920731F02D813E813F
:100400002F5F3F4F3E832D83DF91CF9108958FEF74
:100410009FEF089560E070E0CB01089580E090E0E8
:1004200008950F931F93CF93DF938C01EB016F3FE0
:100430008FEF780719F480E090E00FC06A3031F454
:100440006DE0F801808991890E948D006C2FF80180
:10045000808991890E948D00CE01DF91CF911F91FB
:100460000F9108958F929F92BF92CF92DF92EF9259
:10047000FF920F931F93CF93DF9300D000D0CDB79F
:10048000DEB78C014B01C12CD12C7601C216D306EC
:10049000E406F50644F5F401B1904F01FAE0BF120D
:1004A0000EC06DE0F8018089918929833A834B83DE
:1004B0005C830E948D005C814B813A8129816B2D88
:1004C000F8018089918929833A834B835C830E9458
:1004D0008D00FFEFCF1ADF0AEF0AFF0A5C814B8124
:1004E0003A812981D3CFCA01B9010F900F900F90A3
:1004F0000F90DF91CF911F910F91FF90EF90DF90C0
:10050000CF90BF909F908F900895CB010895CF9387
:10051000DF93EC0188899989DC01ED91FC910480DD
:10052000F581E02D0995892B59F088899989DC019D
:10053000ED91FC910680F781E02DDF91CF91099438
:100540008FEF9FEFDF91CF910895CF93DF93EC0171
:1005500088899989DC01ED91FC910480F581E02D79
:100560000995892B59F088899989DC01ED91FC91D5
:100570000084F185E02DDF91CF9109948FEF9FEFFB
:10058000DF91CF910895AF92BF92CF92DF92EF9219
:10059000FF920F931F93CF93DF9300D000D0CDB77E
:1005A000DEB78C015B01C12CD12C7601F80180896A
:1005B0009189DC01ED91FC910680F781E02D298382
:1005C0003A834B835C83099529813A814B815C8115
:1005D0008F3F71F0C216D306E406F5064CF4D50140
:1005E0008D935D01BFEFCB1ADB0AEB0AFB0ADECF6E
:1005F000C701B6010F900F900F900F90DF91CF9130
:100600001F910F91FF90EF90DF90CF90BF90AF9030
:100610000895DC0150968D919C915197DC01ED91EC
:10062000FC910480F581E02D099480E090E008952C
:1006300080E090E00895089580E090E00895CB0177
:10064000089580E090E008951F93CF93DF93EC012D
:10065000162F8F8580FF0BC0E881F9810084F1851A
:10066000E02D20E144E060E070E0CE010995EB85EB
:10067000FC852D853E85812F90E0E217F30758F425
:1006800010832B853C852F5F3F4F3C872B87DF9165
:10069000CF911F910895E881F981028CF38DE02DAF
:1006A000BC01CE01DF91CF911F910994AF92BF920F
:1006B000CF92DF92EF92FF920F931F93CF93DF932E
:1006C00000D000D0CDB7DEB78C015B01C12CD12C9E
:1006D0007601C216D306E406F506B4F4F50161917D
:1006E0005F01C80129833A834B835C830E94240302
:1006F00029813A814B815C81019649F06FEFC61ADE
:10070000D60AE60AF60AE5CFB901CA0102C0B60167
:10071000C7010F900F900F900F90DF91CF911F9115
:100720000F91FF90EF90DF90CF90BF90AF90089522
:100730000895CF93DF93EC01E881F981369701901A
:10074000F081E02DE80FF91F83899489DC01ED9198
:10075000FC910484F585E02D0995019659F4E88112
:10076000F98136970190F081E02DEC0FFD1F858116
:1007700081608583CE01DF91CF910895CF93DF9380
:10078000EC01E881F98136970190F081E02DE80FC6
:10079000F91F838994890E942403019699F4E881C2
:1007A000F98136970190F081E02DEC0FFD1F8581D6
:1007B000982F926023893489232B11F0958302C0EE
:1007C00083608583CE01DF91CF91089508950895C8
:1007D000CF93DF93EC01E881F98136970190F081A6
:1007E000E02DE80FF91F81899289009711F00E948E
:1007F00099036AE0CE010E94BE03CE010E949903D4
:10080000CE01DF91CF9108954F925F926F927F92C8
:100810008F929F92AF92BF92CF92DF92EF92FF9210
:100820000F931F93CF93DF938C01E0916602F091B9
:10083000670236970190F081E02DEA59FD4F8189DA
:100840009289009711F00E949903F801019000200D
:10085000E9F731974F01801A910AA12CB12CE09150
:100860006602F091670236970190F081E02DE85919
:10087000FD4FC284D384E484F584C818D908EA08FB
:10088000FB08818192818E709927049739F52601A2
:1008900037011414150416041704ACF441E0441A8B
:1008A000510861087108E0916602F091670236977D
:1008B0000190F081E02DEA59FD4F608986E692E0D3
:1008C0000E94BE03E6CFD701C601F7FE03C080E059
:1008D00090E0DC01C81AD90AEA0AFB0AE091660234
:1008E000F091670236970190F081E02DEA59FD4FB3
:1008F000C389D4898F8580FF0BC0E881F98100848A
:10090000F185E02D20E144E060E070E0CE01099542
:10091000E881F981008CF18DE02DA5019401B801E9
:10092000CE01099520916602309167026F3F7F4F9B
:1009300079F4F90136970190F081E02DEA59FD4FE5
:100940008581982F926043895489452B41F1958385
:10095000F90136970190F081E02DE859FD4F818132
:1009600092818E7099270297E9F41C141D041E04CD
:100970001F04C4F481E0C81AD108E108F108E0912D
:100980006602F091670236970190F081E02DEA59F6
:10099000FD4F608986E692E00E94BE03E6CF836049
:1009A0008583D6CFE0916602F09167023697019079
:1009B000F081E02DE859FD4F1286138614861586C6
:1009C00086E692E0DF91CF911F910F91FF90EF901B
:1009D000DF90CF90BF90AF909F908F907F906F905F
:1009E0005F904F9008958AE691E00E9404040E946F
:1009F000E8030E94E4016093C5017093C6018093EF
:100A0000C7019093C8018091C3019091C401892BC3
:100A100031F482E090E09093C4018093C301089583
:100A20000E94F3090C945B090C945B0908950895E6
:100A30000C945B09DC01ED91FC91369720813181AA
:100A4000820F931F0C941805FB0120813181FC015A
:100A500031832083FB0142815381F9013697208144
:100A60003181FC01E20FF31F51834083089524E597
:100A700031E0FC01318320832EE531E0358B248B7E
:100A800064E671E00C942405DC01ED91FC9136974D
:100A900020813181820F931F0C943705CF93DF9310
:100AA000EC010E943705CE01DF91CF910C945B09D8
:100AB000DC01ED91FC91369720813181820F931FEB
:100AC0000C944E050C945B091F920F920FB60F9277
:100AD00011242F933F934F935F936F937F938F9343
:100AE0009F93AF93BF93EF93FF9389EC91E00E94A4
:100AF000F700FF91EF91BF91AF919F918F917F91FF
:100B00006F915F914F913F912F910F900FBE0F907A
:100B10001F9018951F920F920FB60F9211242F93CA
:100B20008F939F93EF93FF93E091D901F091DA01B6
:100B30008081E091DF01F091E00182FD12C090819F
:100B40008091E2018F5F8F732091E301821751F052
:100B5000E091E201F0E0E753FE4F958F8093E201D0
:100B600001C08081FF91EF919F918F912F910F9004
:100B70000FBE0F901F9018951F920F920FB60F92F5
:100B800011242F933F938F939F93AF93BF938091A3
:100B9000BF019091C001A091C101B091C2013091FB
:100BA000BE0123E0230F2D3720F40196A11DB11DB6
:100BB00005C026E8230F0296A11DB11D2093BE019A
:100BC0008093BF019093C001A093C101B093C20173
:100BD0008091BA019091BB01A091BC01B091BD017F
:100BE0000196A11DB11D8093BA019093BB01A09302
:100BF000BC01B093BD01BF91AF919F918F913F9187
:100C00002F910F900FBE0F901F9018951F920F926B
:100C10000FB60F9211242F933F934F935F936F93CF
:100C20007F938F939F93AF93BF93EF93FF93E09145
:100C30000201F09103010995FF91EF91BF91AF91EE
:100C40009F918F917F916F915F914F913F912F91E4
:100C50000F900FBE0F901F9018951F920F920FB616
:100C60000F9211242F933F934F935F936F937F9332
:100C70008F939F93AF93BF93EF93FF93E091000106
:100C8000F09101010995FF91EF91BF91AF919F9173
:100C90008F917F916F915F914F913F912F910F9025
:100CA0000FBE0F901F9018951F920F920FB60F92C4
:100CB00011240F931F932F933F934F935F936F9341
:100CC0007F938F939F93AF93BF93EF93FF930E9474
:100CD000E4010091B6011091B7012091B801309163
:100CE000B901DC01CB01801B910BA20BB30B8B3A3A
:100CF0009540A105B10570F00E94E4016093B60132
:100D00007093B7018093B8019093B90161E08DE0D1
:100D10000E94B4010E94E4010091B6011091B70154
:100D20002091B8013091B901DC01CB01801B910BFE
:100D3000A20BB30B8B369105A105B10520F060E045
:100D40008DE00E94B401FF91EF91BF91AF919F910F
:100D50008F917F916F915F914F913F912F911F9153
:100D60000F910F900FBE0F901F901895A9ECB1E056
:100D700013961C921E92129748EE53E060E070E0CA
:100D800014964D935D936D937C93179782E291E057
:100D900011969C938E9385EC90E01D969C938E9378
:100DA0001C9784EC90E01F969C938E931E9780EC8A
:100DB00090E051969C938E93509781EC90E05396DF
:100DC0009C938E93529782EC90E055969C938E93D1
:100DD000549786EC90E057969C938E93569759962D
:100DE0001C9259975A961C925A975B961C925B9745
:100DF0005C961C925C97E6E6F2E081E290E0908FD0
:100E0000878B118E128E138E46E050E060E070E00A
:100E1000448F558F668F778F10A211A212A213A252
:100E200080E284A316A215A211A688E692E090A7FC
:100E300087A384E591E0918380838EE591E0958B93
:100E4000848B16821582108617821286118614866C
:100E5000138616861586108A178682E391E093839F
:100E60008283B38BA28B80E1818B0895789484B5C3
:100E7000826084BD84B5816084BD85B5826085BD96
:100E800085B5816085BD80916E00816080936E0024
:100E90001092810080918100826080938100809116
:100EA00081008160809381008091800081608093C7
:100EB00080008091B10084608093B1008091B00087
:100EC00081608093B00080917A00846080937A0082
:100ED00080917A00826080937A0080917A008160AC
:100EE00080937A0080917A00806880937A001092D3
:100EF000C100E091D901F091DA0182E08083E091B4
:100F0000D501F091D6011082E091D701F091D8017E
:100F100080E180831092E101E091DD01F091DE013A
:100F200086E08083E091DB01F091DC0180818061CB
:100F30008083E091DB01F091DC0180818860808317
:100F4000E091DB01F091DC01808180688083E09199
:100F5000DB01F091DC0180818F7D808381E090E076
:100F60009093C4018093C3010E94E4016093C50182
:100F70007093C6018093C7019093C80164E7262E41
:100F800060E0362E70EB472E70E0572ECCE9D0E0B3
:100F900003E010E0EE24E394F12CFBEBCF2EF0E025
:100FA000DF2EA7EAAA2EA0E0BA2EB3EF8B2EB4E074
:100FB0009B2EF1018491F2017490FE0164906620F1
:100FC00009F4A8C081110E948B01E62DF0E0EE0F1C
:100FD000FF1FE859FF4FA591B4918C91782209F435
:100FE00099C00E94E4012091C5013091C601409151
:100FF000C7015091C801DC01CB01821B930BA40BEC
:10100000B50B0B97A105B10508F484C08091C3010D
:101010009091C4018230910509F47FC0833091051D
:1010200009F486C0019709F075C08FE791E00E942E
:1010300004040E94E803612C712C862DF301E25513
:10104000FF4F9491F301E656FF4F24912223C1F004
:1010500030E0220F331FF901E057FF4FA591B49103
:10106000F901EA57FF4F459154912FB7F8943C91FD
:10107000909539233C93DA01EC919E239C932FBFEA
:1010800060E00E94B401BFEF6B1A7B0AE4E16E16C8
:10109000710499F610927A00F6014491F501849159
:1010A000882399F090E0880F991FFC01E057FF4FCB
:1010B000A591B491FC01EA57FF4F259134918FB768
:1010C000F8949C91492B4C938FBF61E08DE00E9476
:1010D000B4019092010180920001809169008360C7
:1010E00080936900E89A8091B00082608093B0009C
:1010F000F9EFF093B30080917000826080937000EC
:101100008091B10084608093B10078941092C40102
:101110001092C3010E9481014CCF8DE891E00E94A2
:1011200004040E94E8031093C4010093C301F2CFAA
:1011300086EA91E00E9404040E94E803F092C40150
:10114000E092C30183B7817F846083BF83B78160EE
:1011500083BF1092010110920001809169008C7F81
:1011600080936900E89A80E685BFA0E4A5BF8895D2
:1011700083B78E7F83BFCECF86E692E00C9437058F
:10118000EE0FFF1F0590F491E02D0994CF93DF93AC
:101190008230910510F482E090E0E0919202F091AB
:1011A000930220E030E0C0E0D0E0309711F14081C0
:1011B000518148175907C0F04817590761F48281D7
:1011C0009381209719F09B838A832BC0909393027D
:1011D0008093920226C02115310519F0421753075A
:1011E00018F49A01BE01DF01EF010280F381E02DC6
:1011F000DCCF2115310509F1281B390B24303105CD
:1012000090F412968D919C9113976115710521F0C0
:10121000FB019383828304C0909393028093920294
:10122000FD01329644C0FD01E20FF31F81939193BB
:10123000225031092D933C933AC020919002309175
:101240009102232B41F42091060130910701309344
:101250009102209390022091040130910501211503
:10126000310541F42DB73EB7409108015091090175
:10127000241B350BE0919002F0919102E217F307E5
:10128000A0F42E1B3F0B2817390778F0AC014E5FF6
:101290005F4F2417350748F04E0F5F1F50939102A0
:1012A000409390028193919302C0E0E0F0E0CF017F
:1012B000DF91CF9108950F931F93CF93DF93009702
:1012C00009F48CC0FC0132971382128200919202C1
:1012D000109193020115110581F420813181820F53
:1012E000931F20919002309191022817390779F5C8
:1012F000F0939102E093900271C0D80140E050E079
:10130000AE17BF0750F412962D913C911397AD0183
:101310002115310509F1D901F3CF9D01DA0133839C
:10132000228360817181860F971F8217930769F46A
:10133000EC0128813981260F371F2E5F3F4F318303
:1013400020838A819B8193838283452B29F4F093A8
:101350009302E093920242C01396FC93EE9312978D
:10136000ED01499159919E01240F351FE217F307B2
:1013700071F480819181840F951F029611969C9340
:101380008E938281938113969C938E931297E0E0C3
:10139000F0E0D80112968D919C911397009719F067
:1013A000F8018C01F6CF8D919C9198012E5F3F4FF3
:1013B000820F931F209190023091910228173907D4
:1013C00069F4309729F4109293021092920202C0AD
:1013D000138212821093910200939002DF91CF91B9
:1013E0001F910F91089581E090E0F8940C94F80912
:1013F00010E0C2E6D0E004C0FE010E94C0082196C1
:0A140000C336D107C9F7F894FFCFF7
:10140A00F001F001000094028000140000000000C6
:10141A0000000000ECFFECFF0000000000000000EC
:10142A00000018019400E100BF00D3005F01000032
:10143A000000E60314051B031803210315031C030C
:10144A000903C302A50287028502320211021400AF
:10145A000000000037054E05ECFFECFF00004405D4
:10146A005805540110011A015E01496E74657272C1
:10147A00757074696F6E526973696E6728290043C3
:10148A006F6D6D616E643A3A496E697400436F6DAF
:10149A006D616E643A3A576169744265666F726546
:1014AA00536C65657000436F6D6D616E643A3A53B3
:0614BA006C656570000086
:107800000C94343C0C94513C0C94513C0C94513CE1
:107810000C94513C0C94513C0C94513C0C94513CB4
:107820000C94513C0C94513C0C94513C0C94513CA4
:107830000C94513C0C94513C0C94513C0C94513C94
:107840000C94513C0C94513C0C94513C0C94513C84
:107850000C94513C0C94513C0C94513C0C94513C74
:107860000C94513C0C94513C11241FBECFEFD8E036
:10787000DEBFCDBF11E0A0E0B1E0ECE9FFE702C060
:1078800005900D92A230B107D9F712E0A2E0B1E065
:1078900001C01D92AD30B107E1F70E942D3D0C945F
:1078A000CC3F0C94003C982F959595959595959582
:1078B000905D8F708A307CF0282F295A8091C0000B
:1078C00085FFFCCF9093C6008091C00085FFFCCF60
:1078D0002093C6000895282F205DF0CF982F809127
:1078E000C00085FFFCCF9093C6000895EF92FF92F1
:1078F0000F931F93EE24FF2487018091C00087FD22
:1079000017C00894E11CF11C011D111D81E4E8164B
:1079100082E4F8068FE0080780E0180770F3E09132
:107920000401F091050109958091C00087FFE9CF1E
:107930008091C6001F910F91FF90EF9008950E94D3
:10794000763C982F8091C00085FFFCCF9093C600B5
:1079500091362CF490330CF09053892F089597555D
:10796000892F08951F930E949F3C182F0E949F3CCF
:107970001295107F810F1F9108951F93182F882350
:1079800021F00E94763C1150E1F71F9108951F935A
:10799000182F0E94763C803249F0809103018F5F5E
:1079A000809303018530C1F01F9108958091C0003C
:1079B00085FFFCCF84E18093C6008091C00085FFE5
:1079C000FCCF1093C6008091C00085FFFCCF80E102
:1079D0008093C6001F910895E0910401F091050184
:1079E00009951F9108950E94763C803241F0809164
:1079F00003018F5F80930301853081F008958091AA
:107A0000C00085FFFCCF84E18093C6008091C00058
:107A100085FFFCCF80E18093C6000895E0910401CA
:107A2000F09105010995089540E951E08823A1F0FE
:107A30002D9A28EE33E0FA013197F1F721503040CA
:107A4000D1F72D9828EE33E0FA013197F1F7215064
:107A50003040D1F7815061F708953F924F925F9285
:107A60006F927F928F929F92AF92BF92CF92DF924E
:107A7000EF92FF920F931F93CF93DF93000080E16B
:107A80008093C4001092C50088E18093C10086E015
:107A90008093C2005098589A259A81E00E94143D24
:107AA00024E1F22E9EE1E92E85E9D82E0FE0C02ECA
:107AB00010E1B12EAA24A394B1E49B2EA6E58A2E50
:107AC000F2E57F2EE0E26E2E79E4572E63E5462E36
:107AD00050E5352E0E94763C8033B1F18133B9F107
:107AE000803409F46FC0813409F476C0823409F41B
:107AF00085C0853409F488C0803531F1823521F1A3
:107B0000813511F1853509F485C0863509F48DC0BC
:107B1000843609F496C0843709F403C1853709F423
:107B200072C1863709F466C0809103018F5F80932C
:107B30000301853079F6E0910401F0910501099582
:107B40000E94763C803351F60E94F33CC3CF0E94E2
:107B5000763C803249F78091C00085FFFCCFF092DF
:107B6000C6008091C00085FFFCCF9092C600809136
:107B7000C00085FFFCCF8092C6008091C00085FFC9
:107B8000FCCF7092C6008091C00085FFFCCF609250
:107B9000C6008091C00085FFFCCF5092C600809146
:107BA000C00085FFFCCF4092C6008091C00085FFD9
:107BB000FCCF3092C6008091C00085FFFCCFB09210
:107BC000C60088CF0E94763C863808F4BDCF0E945C
:107BD000763C0E94F33C7ECF0E94763C803809F4CC
:107BE0009CC0813809F40BC1823809F43CC1883942
:107BF00009F48FC080E00E94C73C6CCF84E10E94F2
:107C0000BD3C0E94F33C66CF85E00E94BD3C0E94D3
:107C1000F33C60CF0E94763C809306010E94763C44
:107C2000809307010E94F33C55CF0E94763C80333D
:107C300009F41DC183E00E94BD3C80E00E94C73C66
:107C400049CF0E94763C809309020E94763C809343
:107C5000080280910C028E7F80930C020E94763C79
:107C6000853409F415C18091080290910902892B8D
:107C700089F000E010E00E94763CF801E85FFE4FDA
:107C800080830F5F1F4F80910802909109020817AF
:107C9000190788F30E94763C803209F045CF809125
:107CA0000C0280FF01C16091060170910701660F0F
:107CB000771F7093070160930601A0910802B091AD
:107CC00009021097C9F0E8E0F1E09B01AD014E0F09
:107CD0005F1FF999FECF32BD21BD819180BDFA9A17
:107CE000F99A2F5F3F4FE417F50799F76A0F7B1F4B
:107CF00070930701609306018091C00085FFFCCF5F
:107D0000F092C6008091C00085FFFCCFB092C60003
:107D1000E1CE83E00E94C73CDDCE82E00E94C73CFA
:107D2000D9CE0E94763C809309020E94763C8093D3
:107D300008028091060190910701880F991F909386
:107D40000701809306010E94763C853409F4A6C0A1
:107D500080910C028E7F80930C020E94763C8032D0
:107D600009F0B8CE8091C00085FFFCCFF092C6002C
:107D7000609108027091090261157105B9F140E046
:107D800050E080910C02A82FA170B82FB27011C0E2
:107D9000BB2309F45CC0E0910601F0910701319624
:107DA000F0930701E09306014F5F5F4F46175707B7
:107DB000E8F4AA2369F3F999FECF209106013091E6
:107DC000070132BD21BDF89A90B58091C00085FFB2
:107DD000FCCF9093C6002F5F3F4F30930701209355
:107DE00006014F5F5F4F4617570718F38091C00099
:107DF00085FDE5CE8091C00085FFF8CFE0CE81E023
:107E00000E94C73C67CE0E94763C803209F08CCE3F
:107E10008091C00085FFFCCFF092C6008091C00029
:107E200085FFFCCFE092C6008091C00085FFFCCFAB
:107E3000D092C6008091C00085FFFCCFC092C600E2
:107E40008091C00085FFFCCFB092C60043CEE09188
:107E50000601F091070194918091C00085FFFCCF4D
:107E60009093C6009CCF80E10E94C73C33CE0E9415
:107E7000763C0E94763C182F0E94763C112309F430
:107E800083C0113009F484C08FE00E94C73C22CE29
:107E900080910C02816080930C02E5CE80910C02EF
:107EA000816080930C0259CF809107018823880F4D
:107EB000880B8A2180930B02809106019091070123
:107EC000880F991F90930701809306018091080203
:107ED00080FF09C080910802909109020196909359
:107EE000090280930802F894F999FECF1127E091D6
:107EF0000601F0910701C8E0D1E08091080290915D
:107F00000902103091F40091570001700130D9F34B
:107F100003E000935700E89500915700017001308D
:107F2000D9F301E100935700E89509901990009169
:107F3000570001700130D9F301E000935700E89534
:107F40001395103498F011270091570001700130FB
:107F5000D9F305E000935700E895009157000170B0
:107F60000130D9F301E100935700E895329602976A
:107F700009F0C7CF103011F00296E5CF112480919F
:107F8000C00085FFB9CEBCCE8EE10E94C73CA2CD19
:0C7F900085E90E94C73C9ECDF894FFCF0D
:027F9C00800063
:040000030000780081
:00000001FF