:100000000C9463000C9426060C94FF050C948B0052
:100010000C948B000C948B000C948B000C944D066C
:100020000C948B000C948B000C948B000C948B0024
:100030000C948B000C948B000C948B000C948B0014
:100040000C94B5050C948B000C9483050C945D0501
:100050000C948B000C948B000C948B000C948B00F4
:100060000C948B000C948B000000000023002600F1
:10007000290000000008000201000003040700003E
:1000800000000000000000000000250028002B00F8
:1000900000000000240027002A00040404040404D3
:1000A0000404020202020202030303030303010227
:1000B00004081020408001020408102001020408F6
:1000C0001020B4074C0911241FBECFEFD8E0DEBFCB
:1000D000CDBF11E0A0E0B1E0EAE2F5E102C0059099
:1000E0000D92AE36B107D9F722E0AEE6B1E001C01D
:1000F0001D92AB35B207E1F710E0C2E6D0E004C0D4
:100100002197FE010E945009C136D107C9F70E940C
:1001100034080C94880A0C940000DC01ED91FC91E9
:100120000190F081E02D0994CF92DF92EF92FF923F
:100130000F931F93CF93DF936C017A018B01C0E083
:10014000D0E0CE15DF0589F0D8016D918D01D60183
:10015000ED91FC910190F081E02DC6010995892B6C
:1001600011F47E0102C02196ECCFC701DF91CF913F
:100170001F910F91FF90EF90DF90CF900895FC01B9
:10018000918D828D981761F0828DDF01A80FB11DCE
:100190005D968C91928D9F5F9F73928F90E00895F2
:1001A0008FEF9FEF0895FC01918D828D981731F0AC
:1001B000828DE80FF11D858D90E008958FEF9FEF00
:1001C0000895FC01918D228D892F90E0805C9F4FD6
:1001D000821B91098F739927089580E991E00E940D
:1001E000E10021E0892B09F420E0822F0895FC0131
:1001F000848DDF01A80FB11DA35ABF4F2C91848DB0
:1002000090E001968F739927848FA689B7892C93E4
:10021000A089B1898C9180648C93938D848D98137F
:1002200006C00288F389E02D80818F7D8083089548
:10023000EF92FF920F931F93CF93DF93EC0181E036
:10024000888F9B8D8C8D981305C0E889F9898081F2
:1002500085FD24C0F62E0B8D10E00F5F1F4F0F732E
:100260001127E02E8C8DE8120CC00FB607FCFACFD8
:10027000E889F989808185FFF5CFCE010E94F700DA
:10028000F1CF8B8DFE01E80FF11DE35AFF4FF08295
:100290000B8FEA89FB898081806207C0EE89FF8924
:1002A0006083E889F98980818064808381E090E0BF
:1002B000DF91CF911F910F91FF90EF900895CF9311
:1002C000DF93EC01888D8823C9F0EA89FB8980815E
:1002D00085FD05C0A889B9898C9186FD0FC00FB630
:1002E00007FCF5CF808185FFF2CFA889B9898C9171
:1002F00085FFEDCFCE010E94F700E7CFDF91CF91D0
:10030000089580E090E0892B29F00E94ED00811192
:100310000C9400000895833081F028F4813099F026
:100320008230A1F008958730A9F08830B9F0843088
:10033000D1F4809180008F7D03C0809180008F7701
:1003400080938000089584B58F7702C084B58F7D37
:1003500084BD08958091B0008F7703C08091B00074
:100360008F7D8093B0000895CF93DF93282F30E0E6
:10037000F901EE58FF4F8491F901E255FF4FD491F6
:10038000F901E656FF4FC491CC2391F081110E94F0
:100390008B01EC2FF0E0EE0FFF1FE859FF4FA59106
:1003A000B491EC91ED2381E090E021F480E002C073
:1003B00080E090E0DF91CF9108951F93CF93DF937A
:1003C000282F30E0F901EE58FF4F8491F901E255F2
:1003D000FF4FD491F901E656FF4FC491CC23C9F0E9
:1003E000162F81110E948B01EC2FF0E0EE0FFF1F02
:1003F000EA57FF4FA591B4918FB7F894111105C03A
:100400009C91ED2FE095E92302C0EC91ED2BEC934C
:100410008FBFDF91CF911F9108952FB7F89460910E
:1004200074017091750180917601909177012FBFD1
:1004300008950E940D026093780170937901809372
:100440007A0190937B0108950E940D0260938001D0
:1004500070938101809382019093830108950895A0
:10046000CF93DF93EC01E881F9810288F389E02DD5
:1004700009958F3F2FEF920731F02D813E812F5F3D
:100480003F4F3E832D83DF91CF9108958FEF9FEFF4
:10049000089560E070E0CB01089580E090E0089559
:1004A0000F931F93CF93DF938C01EB016F3F8FEF7F
:1004B000780719F480E090E00FC06A3031F46DE005
:1004C000F801808991890E948D006C2FF801808944
:1004D00091890E948D00CE01DF91CF911F910F91E4
:1004E00008958F929F92BF92CF92DF92EF92FF92E8
:1004F0000F931F93CF93DF9300D000D0CDB7DEB71B
:100500008C014B01C12CD12C7601C216D306E40616
:10051000F50644F5F401B1904F01FAE0BF120EC0A8
:100520006DE0F8018089918929833A834B835C834C
:100530000E948D005C814B813A8129816B2DF801ED
:100540008089918929833A834B835C830E948D0043
:10055000FFEFCF1ADF0AEF0AFF0A5C814B813A8175
:100560002981D3CFCA01B9010F900F900F900F903E
:10057000DF91CF911F910F91FF90EF90DF90CF907F
:10058000BF909F908F900895CB010895CF93DF93F4
:10059000EC0188899989DC01ED91FC910480F58159
:1005A000E02D0995892B59F088899989DC01ED9115
:1005B000FC910680F781E02DDF91CF9109948FEFB8
:1005C0009FEFDF91CF910895CF93DF93EC0188895E
:1005D0009989DC01ED91FC910480F581E02D09956C
:1005E000892B59F088899989DC01ED91FC9100846F
:1005F000F185E02DDF91CF9109948FEF9FEFDF918F
:10060000CF910895AF92BF92CF92DF92EF92FF9277
:100610000F931F93CF93DF9300D000D0CDB7DEB7F9
:100620008C015B01C12CD12C7601F8018089918964
:10063000DC01ED91FC910680F781E02D29833A835E
:100640004B835C83099529813A814B815C818F3F83
:1006500071F0C216D306E406F5064CF4D5018D936D
:100660005D01BFEFCB1ADB0AEB0AFB0ADECFC70145
:10067000B6010F900F900F900F90DF91CF911F91C7
:100680000F91FF90EF90DF90CF90BF90AF900895C3
:10069000DC0150968D919C915197DC01ED91FC917C
:1006A0000480F581E02D099480E090E0089580E0D9
:1006B00090E008950895CB01089580E090E00895BA
:1006C00080E090E008951F93CF93DF93EC01162F05
:1006D0008F8580FF0BC0E881F9810084F185E02DD2
:1006E00020E144E060E070E0CE010995EB85FC85F7
:1006F0002D853E85812F90E0E217F30758F4108393
:100700002B853C852F5F3F4F3C872B87DF91CF9117
:100710001F910895E881F981028CF38DE02DBC01D1
:10072000CE01DF91CF911F910994E0912D02F091BC
:100730002E0236970190F081E02DE35DFD4F682F8A
:10074000838994890E9463030196A9F4E0912D02A4
:10075000F0912E0236970190F081E02DE35DFD4F80
:100760008581982F926023893489232B11F09583FA
:1007700002C0836085838DE292E00895AF92BF92BC
:10078000CF92DF92EF92FF920F931F93CF93DF935D
:1007900000D000D0CDB7DEB78C015B01C12CD12CCD
:1007A0007601C216D306E406F506B4F4F5016191AC
:1007B0005F01C80129833A834B835C830E946303F2
:1007C00029813A814B815C81019649F06FEFC61A0D
:1007D000D60AE60AF60AE5CFB901CA0102C0B60197
:1007E000C7010F900F900F900F90DF91CF911F9145
:1007F0000F91FF90EF90DF90CF90BF90AF90089552
:100800000895089508954F925F926F927F928F920C
:100810009F92AF92BF92CF92DF92EF92FF920F938F
:100820001F93CF93DF938C01E0912D02F0912E0264
:1008300036970190F081E02DE35DFD4FC189D289AB
:100840002097E9F0E881F98136970190F081E02D59
:10085000EC0FFD1F83899489DC01ED91FC910484E8
:10086000F585E02D0995019651F4E881F9813697D7
:1008700080819181C80FD91F8D8181608D83F8019E
:1008800001900020E9F731974F01801A910AA12CBD
:10089000B12CE0912D02F0912E0236970190F0815B
:1008A000E02DE15DFD4FC284D384E484F584C81853
:1008B000D908EA08FB08818192818E7099270497F4
:1008C00029F52601370114141504160417049CF4A5
:1008D00021E0421A510861087108E0912D02F0915F
:1008E0002E0236970190F081E02DE35DFD4F808967
:1008F0000E949503E8CFD701C601F7FE03C080E050
:1009000090E0DC01C81AD90AEA0AFB0AE0912D023C
:10091000F0912E0236970190F081E02DE35DFD4FBE
:10092000C389D4898F8580FF0BC0E881F981008459
:10093000F185E02D20E144E060E070E0CE01099512
:10094000E881F981008CF18DE02DA5019401B801B9
:10095000CE01099520912D0230912E026F3F7F4FDD
:1009600079F4F90136970190F081E02DE35DFD4FB8
:100970008581982F926043895489452B31F1958365
:10098000F90136970190F081E02DE15DFD4F818105
:1009900092818E7099270297D9F41C141D041E04AD
:1009A0001F04B4F481E0C81AD108E108F108E0910D
:1009B0002D02F0912E0236970190F081E02DE35D3B
:1009C000FD4F80890E949503E8CF83608583D8CF4F
:1009D000E0912D02F0912E0236970190F081E02DEA
:1009E000E15DFD4F12861386148615868DE292E036
:1009F000DF91CF911F910F91FF90EF90DF90CF90FB
:100A0000BF90AF909F908F907F906F905F904F902E
:100A100008950E94830A0C94EB090C94EB09089545
:100A200008950C94EB09DC01ED91FC91369720813F
:100A30003181820F931F0C941105FB0120813181BC
:100A4000FC0131832083FB0142815381F9013697F8
:100A500020813181FC01E20FF31F5183408308950F
:100A600024E531E0FC01318320832EE531E0358B34
:100A7000248B64E671E00C941D05DC01ED91FC9182
:100A8000369720813181820F931F0C943005CF93CC
:100A9000DF93EC010E943005CE01DF91CF910C94E1
:100AA000EB09DC01ED91FC91369720813181820FB9
:100AB000931F0C9447050C94EB091F920F920FB6ED
:100AC0000F9211242F933F934F935F936F937F93D4
:100AD0008F939F93AF93BF93EF93FF9380E991E040
:100AE0000E94F700FF91EF91BF91AF919F918F917D
:100AF0007F916F915F914F913F912F910F900FBE1A
:100B00000F901F9018951F920F920FB60F921124FD
:100B10002F938F939F93EF93FF93E091A001F09118
:100B2000A1018081E091A601F091A70182FD12C090
:100B300090818091A9018F5F8F732091AA01821704
:100B400051F0E091A901F0E0E057FE4F958F8093BE
:100B5000A90101C08081FF91EF919F918F912F9109
:100B60000F900FBE0F901F9018951F920F920FB607
:100B70000F9211242F933F938F939F93AF93BF9323
:100B80008091740190917501A0917601B0917701E7
:100B90003091730123E0230F2D3720F40196A11D1E
:100BA000B11D05C026E8230F0296A11DB11D20939B
:100BB00073018093740190937501A0937601B093B3
:100BC000770180916F0190917001A0917101B091B6
:100BD00072010196A11DB11D80936F019093700168
:100BE000A0937101B0937201BF91AF919F918F91CA
:100BF0003F912F910F900FBE0F901F9018951F924D
:100C00000F920FB60F9211242F933F934F935F9340
:100C10006F937F938F939F93AF93BF93EF93FF93C4
:100C2000E0910201F09103010995FF91EF91BF91CD
:100C3000AF919F918F917F916F915F914F913F9174
:100C40002F910F900FBE0F901F9018951F920F922B
:100C50000FB60F9211242F933F934F935F936F938F
:100C60007F938F939F93AF93BF93EF93FF93E09105
:100C70000001F09101010995FF91EF91BF91AF91B2
:100C80009F918F917F916F915F914F913F912F91A4
:100C90000F900FBE0F901F9018951F920F920FB6D6
:100CA0000F9211240F931F932F933F934F935F93B2
:100CB0006F937F938F939F93AF93BF93EF93FF9324
:100CC00082E00E94B401892B09F041C08091840127
:100CD00090918501A0918601B091870140917C019E
:100CE00050917D0160917E0170917F01841B950B75
:100CF000A60BB70BB7FD2BC08091780190917901BD
:100D0000A0917A01B0917B014091800150918101C5
:100D10006091820170918301841B950BA60BB70B28
:100D2000B7FD15C00E940D02009178011091790164
:100D300020917A0130917B01DC01CB01801B910B6A
:100D4000A20BB30B0B97A105B10508F0CBC082E055
:100D50000E94B401019709F041C080917C019091FB
:100D60007D01A0917E01B0917F014091840150915D
:100D700085016091860170918701841B950BA60BFC
:100D8000B70BB7FD2BC08091800190918101A0919C
:100D90008201B09183014091780150917901609175
:100DA0007A0170917B01841B950BA60BB70BB7FDE5
:100DB00015C00E940D0200918001109181012091C7
:100DC000820130918301DC01CB01801B910BA20BCE
:100DD000B30B0B97A105B10508F093C080916E018C
:100DE00081111AC080917C0190917D01A0917E01BA
:100DF000B0917F01409184015091850160918601FD
:100E000070918701841B950BA60BB70B181619065A
:100E10001A061B060CF484C080916E01882399F198
:100E20008091840190918501A0918601B091870104
:100E300040917C0150917D0160917E0170917F0114
:100E4000841B950BA60BB70B181619061A061B0662
:100E5000D4F480917C0190917D01A0917E01B091AC
:100E60007F01409188015091890160918A017091C0
:100E70008B01841B950BA60BB70B181619061A06C7
:100E80001B060CF45BC080916E01882331F10E9437
:100E90000D0200918C0110918D0120918E013091F5
:100EA0008F01DC01CB01801B910BA20BB30B893EA0
:100EB0009340A105B10508F444C00E940D0260935F
:100EC0008C0170938D0180938E0190938F018DE042
:100ED0000E94B40161E0681B01C060E08DE00E94E7
:100EE000DD012FC00E940D0260937C0170937D0193
:100EF00080937E0190937F018AE691E00E94030433
:100F000026CF0E940D026093840170938501809327
:100F10008601909387018CE691E00E9403045ECFE6
:100F200081E080936E010E940D02609388017093AE
:100F3000890180938A0190938B016ECF10926E018C
:100F4000A2CFFF91EF91BF91AF919F918F917F9130
:100F50006F915F914F913F912F911F910F910F9042
:100F60000FBE0F901F901895A0E9B1E013961C9248
:100F70001E92129748EE53E060E070E014964D9395
:100F80005D936D937C93179782E291E011969C9309
:100F90008E9385EC90E01D969C938E931C9784EC29
:100FA00090E01F969C938E931E9780EC90E0519654
:100FB0009C938E93509781EC90E053969C938E93E4
:100FC000529782EC90E055969C938E93549786ECC2
:100FD00090E057969C938E93569759961C925997EA
:100FE0005A961C925A975B961C925B975C961C9241
:100FF0005C97EDE2F2E081E290E0908F878B118EBA
:10100000128E138E46E050E060E070E0448F558F02
:10101000668F778F10A211A212A213A280E284A37E
:1010200016A215A211A68FE292E090A787A384E5ED
:1010300091E0918380838EE591E0958B848B16827D
:1010400015821086178212861186148613861686DC
:101050001586108A178682E391E093838283B38B8F
:10106000A28B80E1818B0895789484B5826084BDE1
:1010700084B5816084BD85B5826085BD85B581609C
:1010800085BD80916E00816080936E00109281001A
:1010900080918100826080938100809181008160D5
:1010A0008093810080918000816080938000809196
:1010B000B10084608093B1008091B0008160809322
:1010C000B00080917A00846080937A0080917A00E9
:1010D000826080937A0080917A00816080937A00A8
:1010E00080917A00806880937A001092C100E0912C
:1010F000A001F091A10182E08083E0919C01F09138
:101100009D011082E0919E01F0919F0180E180831A
:101110001092A801E091A401F091A50186E08083DE
:10112000E091A201F091A301808180618083E09130
:10113000A201F091A301808188608083E091A201E7
:10114000F091A301808180688083E091A201F091F9
:10115000A30180818F7D80830E940D0260938C01AA
:1011600070938D0180938E0190938F01609388011D
:101170007093890180938A0190938B01609384011D
:10118000709385018093860190938701609380011D
:1011900070938101809382019093830160937C011D
:1011A00070937D0180937E0190937F01609378011D
:1011B0007093790180937A0190937B01EBEBF0E0DF
:1011C0002491E7EAF0E08491882399F090E0880F79
:1011D000991FFC01E057FF4FA591B491FC01EA571C
:1011E000FF4F859194918FB7F894EC91E22BEC939B
:1011F0008FBFE0EBF0E02491ECE9F0E084918823EC
:10120000C1F090E0880F991FFC01E057FF4FC59196
:10121000D491FC01EA57FF4FA591B4919FB7F89480
:101220008881E22FE0958E2388838C91E823EC93CC
:101230009FBF61E082E00E94DD018091B00082608A
:101240008093B00089EF8093B3008091700082603A
:10125000809370008091B10084608093B100789495
:1012600089E192E0909301018093000180916900EF
:101270008C7F826080936900E89A84E292E0909388
:10128000030180930201809169008C608093690062
:10129000E99A0E948101FDCF8DE292E00C94300525
:1012A000EE0FFF1F0590F491E02D0994CF93DF938B
:1012B0008230910510F482E090E0E0915902F091C3
:1012C0005A0220E030E0C0E0D0E0309711F14081D8
:1012D000518148175907C0F04817590761F48281B6
:1012E0009381209719F09B838A832BC090935A0295
:1012F0008093590226C02115310519F04217530772
:1013000018F49A01BE01DF01EF010280F381E02DA4
:10131000DCCF2115310509F1281B390B24303105AB
:1013200090F412968D919C9113976115710521F09F
:10133000FB019383828304C090935A0280935902E5
:10134000FD01329644C0FD01E20FF31F819391939A
:10135000225031092D933C933AC02091570230918D
:101360005802232B41F4209106013091070130935C
:101370005802209357022091040130910501211554
:10138000310541F42DB73EB7409108015091090154
:10139000241B350BE0915702F0915802E217F30736
:1013A000A0F42E1B3F0B2817390778F0AC014E5FD5
:1013B0005F4F2417350748F04E0F5F1F50935802B8
:1013C000409357028193919302C0E0E0F0E0CF0197
:1013D000DF91CF9108950F931F93CF93DF930097E1
:1013E00009F48CC0FC0132971382128200915902D9
:1013F00010915A020115110581F420813181820F6B
:10140000931F20915702309158022817390779F518
:10141000F0935802E093570271C0D80140E050E0C9
:10142000AE17BF0750F412962D913C911397AD0162
:101430002115310509F1D901F3CF9D01DA0133837B
:10144000228360817181860F971F8217930769F449
:10145000EC0128813981260F371F2E5F3F4F3183E2
:1014600020838A819B8193838283452B29F4F09387
:101470005A02E093590242C01396FC93EE931297DE
:10148000ED01499159919E01240F351FE217F30791
:1014900071F480819181840F951F029611969C931F
:1014A0008E938281938113969C938E931297E0E0A2
:1014B000F0E0D80112968D919C911397009719F046
:1014C000F8018C01F6CF8D919C9198012E5F3F4FD2
:1014D000820F931F20915702309158022817390725
:1014E00069F4309729F410925A021092590202C0FE
:1014F000138212821093580200935702DF91CF910A
:101500001F910F91089581E090E0F8940C94880A5F
:1015100010E0C2E6D0E004C0FE010E94500921960E
:0A152000C336D107C9F7F894FFCFD6
:10152A002F022F0200005B0280001400000000005E
:10153A0000000000ECFFECFF0000000000000000CB
:10154A00000018019400E100BF00D3005F01000011
:10155A00000001040B055A0357035D03540360039B
:10156A0048030203E402C602C402710250021400D4
:10157A000000000030054705ECFFECFF00003D05C8
:0E158A005105540110011A015E015C002F0092
:00000001FF
