:100000000C9436000C945E000C945E000C945E0020
:100010000C945E000C945E000C945E000C945E00E8
:100020000C945E000C945E000C945E000C945E00D8
:100030000C945E000C945E000C945E000C945E00C8
:100040000C94A9030C945E000C9419040C94F30313
:100050000C945E000C945E000C945E000C945E00A8
:100060000C945E000C945E004B04940611241FBE99
:10007000CFEFD8E0DEBFCDBF11E0A0E0B1E0E4E813
:10008000F5E102C005900D92A638B107D9F722E03C
:10009000A6E8B1E001C01D92AC35B207E1F710E06F
:1000A000C5E3D0E004C02197FE010E949806C43346
:1000B000D107C9F70E94CB040C94B50A0C94000038
:1000C000DC01ED91FC910190F081E02D0994CF923B
:1000D000DF92EF92FF920F931F93CF93DF936C0108
:1000E0007A018B01C0E0D0E0CE15DF0589F0D801A0
:1000F0006D918D01D601ED91FC910190F081E02D83
:10010000C6010995892B11F47E0102C02196ECCF1E
:10011000C701DF91CF911F910F91FF90EF90DF907A
:10012000CF900895FC01918D828D981761F0828D9A
:10013000DF01A80FB11D5D968C91928D9F5F9F731B
:10014000928F90E008958FEF9FEF0895FC01918DBD
:10015000828D981731F0828DE80FF11D858D90E02A
:1001600008958FEF9FEF0895FC01918D228D892FC7
:1001700090E0805C9F4F821B91098F7399270895AF
:1001800081E991E00E94B40021E0892B09F420E08C
:10019000822F0895FC01848DDF01A80FB11DA35AA1
:1001A000BF4F2C91848D90E001968F739927848F97
:1001B000A689B7892C93A089B1898C9180648C938E
:1001C000938D848D981306C00288F389E02D808179
:1001D0008F7D80830895EF92FF920F931F93CF93AB
:1001E000DF93EC0181E0888F9B8D8C8D981305C087
:1001F000E889F989808185FD24C0F62E0B8D10E0F9
:100200000F5F1F4F0F731127E02E8C8DE8120CC06B
:100210000FB607FCFACFE889F989808185FFF5CF11
:10022000CE010E94CA00F1CF8B8DFE01E80FF11DB7
:10023000E35AFF4FF0820B8FEA89FB89808180624D
:1002400007C0EE89FF896083E889F989808180642D
:10025000808381E090E0DF91CF911F910F91FF901B
:10026000EF900895CF93DF93EC01888D8823C9F038
:10027000EA89FB89808185FD05C0A889B9898C91AF
:1002800086FD0FC00FB607FCF5CF808185FFF2CF4A
:10029000A889B9898C9185FFEDCFCE010E94CA0053
:1002A000E7CFDF91CF91089580E090E0892B29F08E
:1002B0000E94C00081110C9400000895CF93DF9339
:1002C000EC01E881F9810288F389E02D09958F3FDF
:1002D0002FEF920731F02D813E812F5F3F4F3E83FC
:1002E0002D83DF91CF9108958FEF9FEF089560E008
:1002F00070E0CB01089580E090E008950F931F9384
:10030000CF93DF938C01EB016F3F8FEF780719F4E8
:1003100080E090E00FC06A3031F46DE0F801808930
:1003200091890E9460006C2FF801808991890E9458
:100330006000CE01DF91CF911F910F9108958F92B0
:100340009F92BF92CF92DF92EF92FF920F931F93F3
:10035000CF93DF9300D000D0CDB7DEB78C014B0137
:10036000C12CD12C7601C216D306E406F50644F55D
:10037000F401B1904F01FAE0BF120EC06DE0F80138
:100380008089918929833A834B835C830E94600032
:100390005C814B813A8129816B2DF801808991899B
:1003A00029833A834B835C830E946000FFEFCF1A5E
:1003B000DF0AEF0AFF0A5C814B813A812981D3CFA2
:1003C000CA01B9010F900F900F900F90DF91CF915C
:1003D0001F910F91FF90EF90DF90CF90BF909F9073
:1003E0008F900895CB010895CF93DF93EC01888916
:1003F0009989DC01ED91FC910480F581E02D09954E
:10040000892B59F088899989DC01ED91FC9106804E
:10041000F781E02DDF91CF9109948FEF9FEFDF916E
:10042000CF910895CF93DF93EC0188899989DC01FE
:10043000ED91FC910480F581E02D0995892B59F00F
:1004400088899989DC01ED91FC910084F185E02D8A
:10045000DF91CF9109948FEF9FEFDF91CF910895B6
:10046000AF92BF92CF92DF92EF92FF920F931F93C2
:10047000CF93DF9300D000D0CDB7DEB78C015B0106
:10048000C12CD12C7601F80180899189DC01ED9194
:10049000FC910680F781E02D29833A834B835C83AE
:1004A000099529813A814B815C818F3F71F0C21699
:1004B000D306E406F5064CF4D5018D935D01BFEF3C
:1004C000CB1ADB0AEB0AFB0ADECFC701B6010F909D
:1004D0000F900F900F90DF91CF911F910F91FF9090
:1004E000EF90DF90CF90BF90AF900895DC015096D1
:1004F0008D919C915197DC01ED91FC910480F581E7
:10050000E02D099480E090E0089580E090E0089567
:10051000089580E090E00895CB01089580E090E098
:1005200008951F93CF93DF93EC01162F8F8580FFE3
:100530000BC0E881F9810084F185E02D20E144E0E1
:1005400060E070E0CE010995EB85FC852D853E8548
:10055000812F90E0E217F30758F410832B853C8538
:100560002F5F3F4F3C872B87DF91CF911F910895DD
:10057000E881F981028CF38DE02DBC01CE01DF9181
:10058000CF911F910994AF92BF92CF92DF92EF92D9
:10059000FF920F931F93CF93DF9300D000D0CDB77E
:1005A000DEB78C015B01C12CD12C7601C216D306BB
:1005B000E406F506B4F4F50161915F01C8012983F1
:1005C0003A834B835C830E94910229813A814B815B
:1005D0005C81019649F06FEFC61AD60AE60AF60A60
:1005E000E5CFB901CA0102C0B601C7010F900F9053
:1005F0000F900F90DF91CF911F910F91FF90EF908F
:10060000DF90CF90BF90AF9008950895CF93DF9380
:10061000EC01E881F98136970190F081E02DE80F37
:10062000F91F83899489DC01ED91FC910484F5859F
:10063000E02D0995019659F4E881F98136970190EA
:10064000F081E02DEC0FFD1F858181608583CE0157
:10065000DF91CF910895CF93DF93EC01E881F98189
:1006600036970190F081E02DE80FF91F8389948976
:100670000E949102019699F4E881F98136970190E0
:10068000F081E02DEC0FFD1F8581982F926023896A
:100690003489232B11F0958302C083608583CE01BA
:1006A000DF91CF910895089508950E94CB070C948F
:1006B00033070C943307089508950C943307DC0135
:1006C000ED91FC91369720813181820F931F0C941C
:1006D0005D03FB0120813181FC0131832083FB011B
:1006E00042815381F901369720813181FC01E20F6B
:1006F000F31F51834083089520E531E0FC013183ED
:1007000020832AE531E0358B248B60E671E00C9480
:100710006903DC01ED91FC91369720813181820FD4
:10072000931F0C947C03CF93DF93EC010E947C0316
:10073000CE01DF91CF910C943307DC01ED91FC9158
:10074000369720813181820F931F0C9493030C9470
:1007500033071F920F920FB60F9211242F933F93DE
:100760008F939F93AF93BF9380918D0190918E0152
:10077000A0918F01B091900130918C0123E0230F63
:100780002D3720F40196A11DB11D05C026E8230FC9
:100790000296A11DB11D20938C0180938D01909331
:1007A0008E01A0938F01B093900180918801909168
:1007B0008901A0918A01B0918B010196A11DB11D03
:1007C0008093880190938901A0938A01B0938B0153
:1007D000BF91AF919F918F913F912F910F900FBE3D
:1007E0000F901F9018951F920F920FB60F92112421
:1007F0002F933F934F935F936F937F938F939F9329
:10080000AF93BF93EF93FF9381E991E00E94CA00F9
:10081000FF91EF91BF91AF919F918F917F916F91D8
:100820005F914F913F912F910F900FBE0F901F90AE
:1008300018951F920F920FB60F9211242F938F933A
:100840009F93EF93FF93E091A101F091A20180812A
:10085000E091A701F091A80182FD12C090818091E2
:10086000AA018F5F8F732091AB01821751F0E09145
:10087000AA01F0E0EF56FE4F958F8093AA0101C0C8
:100880008081FF91EF919F918F912F910F900FBEDB
:100890000F901F901895A1E9B1E013961C921E923B
:1008A000129748EE53E060E070E014964D935D932C
:1008B0006D937C9317978EE191E011969C938E93A4
:1008C00085EC90E01D969C938E931C9784EC90E0B1
:1008D0001F969C938E931E9780EC90E051969C936C
:1008E0008E93509781EC90E053969C938E93529701
:1008F00082EC90E055969C938E93549786EC90E012
:1009000057969C938E93569759961C9259975A9640
:100910001C925A975B961C925B975C961C925C9714
:10092000EEE2F2E081E290E0908F878B118E128EE2
:10093000138E46E050E060E070E0448F558F668F84
:10094000778F10A211A212A213A280E284A316A292
:1009500015A211A680E392E090A787A380E591E01D
:10096000918380838AE591E0958B848B1682158232
:1009700010861782128611861486138616861586AF
:10098000108A17868EE291E093838283B38BA28BC9
:1009900080E1818B0895CF93DF93CDB7DEB7649765
:1009A0000FB6F894DEBF0FBECDBF789484B58260D9
:1009B00084BD84B5816084BD85B5826085BD85B503
:1009C000816085BD80916E00816080936E00109281
:1009D00081008091810082608093810080918100FC
:1009E000816080938100809180008160809380008D
:1009F0008091B10084608093B1008091B0008160EB
:100A00008093B00080917A00846080937A00809116
:100A10007A00826080937A0080917A00816080936E
:100A20007A0080917A00806880937A001092C100E9
:100A3000E091A101F091A20182E08083E0919D010B
:100A4000F0919E011082E0919F01F091A00180E160
:100A500080831092A901E091A501F091A60186E0A2
:100A60008083E091A301F091A40180818061808363
:100A7000E091A301F091A401808188608083E091DE
:100A8000A301F091A401808180688083E091A3019B
:100A9000F091A40180818F7D808384E1382E8E01C6
:100AA0000F5F1F4FE0908601F0908701C70101960C
:100AB0009093870180938601E0912E02F0912F029E
:100AC00036970190F081E02DE25DFD4F818992899A
:100AD000009711F00E940603A701FF0C660B770B2D
:100AE000E0912E02F0912F0236970190F081E02DD7
:100AF000E05DFD4F8181928185FD18C086FF05C0B4
:100B000092FD17C08FE691E01FC087FF15C09C01C2
:100B10002227307292FF05C0232B89F488E791E0E9
:100B200013C0232B79F481E891E00EC086E691E0B2
:100B30000BC08AE691E008C080E090E005C083E742
:100B400091E002C08DE791E07F936F935F934F93A5
:100B50009F938F931F923F921F930F930E94D007F2
:100B60002C01990F66087708E0912E02F0912F0270
:100B700036970190F081E02DE05DFD4FC284D38473
:100B8000E484F584C418D508E608F70881819281C9
:100B90008E7099270FB6F894DEBF0FBECDBF0497B5
:100BA00039F546015701181419041A041B04ACF452
:100BB00031E0831A9108A108B108E0912E02F0916A
:100BC0002F0236970190F081E02DE25DFD4F6089A4
:100BD0008EE292E00E942B03E6CFD701C601F7FE1A
:100BE00003C080E090E0DC01C81AD90AEA0AFB0AD7
:100BF000E0912E02F0912F0236970190F081E02DC6
:100C0000E25DFD4F83889488D4011F968C911F97D5
:100C100080FF0BC0ED91FC910084F185E02D20E177
:100C200044E060E070E0C4010995D401ED91FC91CD
:100C3000008CF18DE02DA3019201B801C40109954A
:100C400020912E0230912F026F3F7F4F81F4F901E6
:100C500036970190F081E02DE25DFD4F8581982F60
:100C6000926043895489452B09F45BC09583F9014F
:100C700036970190F081E02DE05DFD4F81819281FA
:100C80008E7099270297B9F0E0912E02F0912F0211
:100C900036970190F081E02DE05DFD4F12861386BE
:100CA000148615868181928196FF1FC08EE292E0A4
:100CB0000E9406031AC01C141D041E041F0424F7FE
:100CC000E1E0CE1AD108E108F108E0912E02F0919E
:100CD0002F0236970190F081E02DE25DFD4F608993
:100CE0008EE292E00E942B03E6CFE0912E02F0917B
:100CF0002F0236970190F081E02DE25DFD4F818952
:100D00009289009711F00E9406036AE08EE292E059
:100D10000E942B038EE292E00E9406030E9454017F
:100D2000C1CE83608583A3CF8EE292E00C947C03D6
:100D3000EE0FFF1F0590F491E02D0994CF93DF9300
:100D40008230910510F482E090E0E0915A02F09137
:100D50005B0220E030E0C0E0D0E0309711F140814C
:100D6000518148175907C0F04817590761F482812B
:100D70009381209719F09B838A832BC090935B0209
:100D800080935A0226C02115310519F042175307E6
:100D900018F49A01BE01DF01EF010280F381E02D1A
:100DA000DCCF2115310509F1281B390B2430310521
:100DB00090F412968D919C9113976115710521F015
:100DC000FB019383828304C090935B0280935A0259
:100DD000FD01329644C0FD01E20FF31F8193919310
:100DE000225031092D933C933AC020915802309102
:100DF0005902232B41F420910201309103013093D9
:100E000059022093580220910001309101012115CF
:100E1000310541F42DB73EB74091040150910501D1
:100E2000241B350BE0915802F0915902E217F307A9
:100E3000A0F42E1B3F0B2817390778F0AC014E5F4A
:100E40005F4F2417350748F04E0F5F1F509359022C
:100E5000409358028193919302C0E0E0F0E0CF010B
:100E6000DF91CF9108950F931F93CF93DF93009756
:100E700009F48CC0FC0132971382128200915A024D
:100E800010915B020115110581F420813181820FDF
:100E9000931F20915802309159022817390779F58C
:100EA000F0935902E093580271C0D80140E050E03D
:100EB000AE17BF0750F412962D913C911397AD01D8
:100EC0002115310509F1D901F3CF9D01DA013383F1
:100ED000228360817181860F971F8217930769F4BF
:100EE000EC0128813981260F371F2E5F3F4F318358
:100EF00020838A819B8193838283452B29F4F093FD
:100F00005B02E0935A0242C01396FC93EE93129751
:100F1000ED01499159919E01240F351FE217F30706
:100F200071F480819181840F951F029611969C9394
:100F30008E938281938113969C938E931297E0E017
:100F4000F0E0D80112968D919C911397009719F0BB
:100F5000F8018C01F6CF8D919C9198012E5F3F4F47
:100F6000820F931F20915802309159022817390798
:100F700069F4309729F410925B0210925A0202C071
:100F8000138212821093590200935802DF91CF917D
:100F90001F910F91089581E090E0F8940C94B50AA8
:100FA000AEE0B0E0E6EDF7E00C948C0A0D891E8906
:100FB0008F89988D26E02C831A83098397FF02C0BE
:100FC00080E090E801979E838D83AE01455E5F4F80
:100FD000698D7A8DCE0101960E9400084D815E8157
:100FE00057FD0AC02F813885421753070CF49A0128
:100FF000F801E20FF31F10822E96E4E00C94A80A89
:10100000ACE0B0E0E6E0F8E00C947E0A7C016B0115
:101010008A01FC0117821682838181FFBDC1CE0146
:1010200001964C01F7019381F60193FD859193FFA1
:1010300081916F01882309F4ABC1853239F493FDA6
:10104000859193FF81916F01853229F4B70190E07A
:101050000E94E809E7CF512C312C20E02032A0F487
:101060008B3269F030F4803259F0833269F42061B8
:101070002CC08D3239F0803339F4216026C02260D3
:10108000246023C0286021C027FD27C030ED380F21
:101090003A3078F426FF06C0FAE05F9E300D112446
:1010A000532E13C08AE0389E300D1124332E206257
:1010B0000CC08E3221F426FD6BC1206406C08C3634
:1010C00011F4206802C0883641F4F60193FD859141
:1010D00093FF81916F018111C1CF982F9F7D95540E
:1010E000933028F40C5F1F4FFFE3F9830DC0833664
:1010F00031F0833771F0833509F05BC022C0F8010D
:10110000808189830E5F1F4F44244394512C5401E6
:1011100015C03801F2E06F0E711CF801A080B1809B
:1011200026FF03C0652D70E002C06FEF7FEFC501A1
:101130002C870E94DD092C0183012C852F77222E1C
:1011400017C03801F2E06F0E711CF801A080B18069
:1011500026FF03C0652D70E002C06FEF7FEFC50171
:101160002C870E94D2092C012C852068222E830115
:1011700023FC1BC0832D90E048165906B0F4B7013C
:1011800080E290E00E94E8093A94F4CFF50127FC50
:10119000859127FE81915F01B70190E00E94E809E7
:1011A00031103A94F1E04F1A51084114510471F78B
:1011B000E5C0843611F0893639F5F80127FF07C0FC
:1011C00060817181828193810C5F1F4F08C06081B3
:1011D0007181072E000C880B990B0E5F1F4F2F7625
:1011E000722E97FF09C090958095709561957F4FFD
:1011F0008F4F9F4F2068722E2AE030E0A4010E949A
:10120000200AA82EA81844C0853729F42F7EB22EB4
:101210002AE030E025C0F22FF97FBF2E8F36C1F0D3
:1012200018F4883579F0B4C0803719F0883721F088
:10123000AFC02F2F2061B22EB4FE0DC08B2D846065
:10124000B82E09C024FF0AC09F2F9660B92E06C091
:1012500028E030E005C020E130E002C020E132E0CB
:10126000F801B7FE07C060817181828193810C5FB4
:101270001F4F06C06081718180E090E00E5F1F4FBC
:10128000A4010E94200AA82EA818FB2DFF777F2E0C
:1012900076FE0BC0372D3E7FA51450F474FE0AC0B5
:1012A00072FC08C0372D3E7E05C0BA2C372D03C016
:1012B000BA2C01C0B52C34FF0DC0FE01EA0DF11DA2
:1012C0008081803311F4397E09C032FF06C0B394A7
:1012D000B39404C0832F867809F0B39433FD13C010
:1012E00030FF06C05A2CB31418F4530C5B18B32CFF
:1012F000B31468F4B70180E290E03C870E94E809EB
:10130000B3943C85F5CFB31410F43B1801C0312CD5
:1013100034FF12C0B70180E390E03C870E94E809E7
:101320003C8532FF17C031FD03C088E790E002C062
:1013300088E590E0B7010CC0832F867859F031FF23
:1013400002C08BE201C080E237FD8DE2B70190E080
:101350000E94E809A51438F4B70180E390E00E94E8
:10136000E8095A94F7CFAA94F401EA0DF11D80819F
:10137000B70190E00E94E809A110F5CF332009F4ED
:1013800051CEB70180E290E00E94E8093A94F6CF8E
:10139000F7018681978102C08FEF9FEF2C96E2E1E3
:1013A0000C949A0AFC010590615070400110D8F726
:1013B000809590958E0F9F1F0895FC01615070409D
:1013C00001900110D8F7809590958E0F9F1F08957A
:1013D0000F931F93CF93DF93FB01238121FD03C064
:1013E0008FEF9FEF28C022FF16C0468157812481CE
:1013F00035814217530744F4A081B1819D012F5FCD
:101400003F4F318320838C93268137812F5F3F4F5D
:101410003783268310C0EB01092F182F0084F18534
:10142000E02D0995892BE1F68E819F8101969F839E
:101430008E83812F902FDF91CF911F910F9108956F
:10144000FA01AA27283051F1203181F1E8946F93F5
:101450006E7F6E5F7F4F8F4F9F4FAF4FB1E03ED09B
:10146000B4E03CD0670F781F891F9A1FA11D680F39
:10147000791F8A1F911DA11D6A0F711D811D911D6C
:10148000A11D20D009F468943F912AE0269F1124E1
:101490003019305D3193DEF6CF010895462F477045
:1014A000405D4193B3E00FD0C9F7F6CF462F4F70A0
:1014B000405D4A3318F0495D31FD4052419302D0FE
:1014C000A9F7EACFB4E0A6959795879577956795A4
:1014D000BA95C9F700976105710508959B01AC01A4
:1014E0000A2E06945795479537952795BA95C9F7CB
:1014F000620F731F841F951FA01D08952F923F92A6
:101500004F925F926F927F928F929F92AF92BF9213
:10151000CF92DF92EF92FF920F931F93CF93DF93BF
:10152000CDB7DEB7CA1BDB0B0FB6F894DEBF0FBE1C
:10153000CDBF09942A88398848885F846E847D8469
:101540008C849B84AA84B984C884DF80EE80FD806B
:101550000C811B81AA81B981CE0FD11D0FB6F894E1
:10156000DEBF0FBECDBFED01089510E0C5E3D0E0B2
:1015700004C0FE010E9498062196C633D107C9F720
:04158000F894FFCF0D
:1015840000005C0280001400000000000000000065
:10159400ECFFECFF00000000000000000000EB0086
:1015A4006700B4009200A60032010000000053035B
:1015B4005903880285028E02820289027602300271
:1015C4001202F401F2019F017E01140000000000E8
:1015D4007C039303ECFFECFF000089039D0350019F
:1015E4000C0116015A01256C640025236C6F00253B
:1015F4006C6F0025236C580025236C7800256C58EB
:0616040000256C780000D7
:107E000085E08093810082E08093C00088E18093C8
:107E1000C10086E08093C20080E18093C40084B7F3
:107E200014BE81FFD0D089E2C8D0259A86E020E335
:107E30003CEF91E0309385002093840096BBB09B8B
:107E4000FECF1D9AA8958150A9F7DD24D394A5E013
:107E5000EA2EF1E1FF2EA4D0813421F481E0BED0DE
:107E600083E024C0823411F484E103C0853419F422
:107E700085E0B4D08AC08535A1F492D0082F10E0F7
:107E800010930102009300028BD090E0982F882776
:107E9000802B912B880F991F9093010280930002F1
:107EA00073C0863529F484E099D080E071D06DC02C
:107EB000843609F043C07CD0E0910002F0910102C9
:107EC00083E080935700E895C0E0D1E069D08993C2
:107ED000809102028150809302028823B9F778D002
:107EE00007B600FCFDCF4091000250910102A0E0D6
:107EF000B1E02C9130E011968C91119790E0982F81
:107F00008827822B932B1296FA010C01D0925700EE
:107F1000E89511244E5F5F4FF1E0A038BF0749F7A5
:107F2000E0910002F0910102E0925700E89507B657
:107F300000FCFDCFF0925700E89527C08437B9F4D4
:107F400037D046D0E0910002F09101023196F093D3
:107F50000102E09300023197E4918E2F19D08091B5
:107F60000202815080930202882361F70EC0853798
:107F700039F42ED08EE10CD085E90AD08FE096CF6F
:107F8000813511F488E019D023D080E101D063CF8E
:107F9000982F8091C00085FFFCCF9093C600089574
:107FA000A8958091C00087FFFCCF8091C6000895FE
:107FB000F7DFF6DF80930202F3CFE0E6F0E098E12E
:107FC00090838083089580E0F8DFEE27FF270994EF
:107FD000E7DF803209F0F7DF84E1DACF1F93182F53
:0C7FE000DFDF1150E9F7F4DF1F91089576
:0400000300007E007B
:00000001FF